{
	"contracts/Receiver.sol": {
		"Caller": {
			"abi": [
				{
					"inputs": [],
					"stateMutability": "nonpayable",
					"type": "constructor"
				},
				{
					"anonymous": false,
					"inputs": [
						{
							"indexed": false,
							"internalType": "bool",
							"name": "success",
							"type": "bool"
						},
						{
							"indexed": false,
							"internalType": "bytes",
							"name": "data",
							"type": "bytes"
						}
					],
					"name": "Response",
					"type": "event"
				},
				{
					"inputs": [],
					"name": "getAddress",
					"outputs": [
						{
							"internalType": "address",
							"name": "",
							"type": "address"
						}
					],
					"stateMutability": "view",
					"type": "function"
				},
				{
					"inputs": [],
					"name": "getBalance",
					"outputs": [
						{
							"internalType": "uint256",
							"name": "",
							"type": "uint256"
						}
					],
					"stateMutability": "view",
					"type": "function"
				},
				{
					"inputs": [
						{
							"internalType": "address payable",
							"name": "_addr",
							"type": "address"
						},
						{
							"internalType": "uint256",
							"name": "_y",
							"type": "uint256"
						}
					],
					"name": "testCall",
					"outputs": [],
					"stateMutability": "payable",
					"type": "function"
				}
			],
			"devdoc": {
				"kind": "dev",
				"methods": {},
				"version": 1
			},
			"evm": {
				"assembly": "    /* \"contracts/Receiver.sol\":782:1558  contract Caller{... */\n  mstore(0x40, 0x80)\n    /* \"contracts/Receiver.sol\":826:881  constructor(){... */\n  callvalue\n  dup1\n  iszero\n  tag_1\n  jumpi\n  0x00\n  dup1\n  revert\ntag_1:\n  pop\n    /* \"contracts/Receiver.sol\":860:874  new Receiver() */\n  mload(0x40)\n  tag_4\n  swap1\n  tag_5\n  jump\t// in\ntag_4:\n  mload(0x40)\n  dup1\n  swap2\n  sub\n  swap1\n  0x00\n  create\n  dup1\n  iszero\n  dup1\n  iszero\n  tag_6\n  jumpi\n  returndatasize\n  0x00\n  dup1\n  returndatacopy\n  revert(0x00, returndatasize)\ntag_6:\n  pop\n    /* \"contracts/Receiver.sol\":849:857  receiver */\n  0x00\n  dup1\n    /* \"contracts/Receiver.sol\":849:874  receiver = new Receiver() */\n  0x0100\n  exp\n  dup2\n  sload\n  dup2\n  0xffffffffffffffffffffffffffffffffffffffff\n  mul\n  not\n  and\n  swap1\n  dup4\n  0xffffffffffffffffffffffffffffffffffffffff\n  and\n  mul\n  or\n  swap1\n  sstore\n  pop\n    /* \"contracts/Receiver.sol\":782:1558  contract Caller{... */\n  jump(tag_7)\ntag_5:\n  dataSize(sub_1)\n  dup1\n  dataOffset(sub_1)\n  dup4\n  codecopy\n  add\n  swap1\n  jump\t// out\ntag_7:\n  dataSize(sub_0)\n  dup1\n  dataOffset(sub_0)\n  0x00\n  codecopy\n  0x00\n  return\nstop\n\nsub_0: assembly {\n        /* \"contracts/Receiver.sol\":782:1558  contract Caller{... */\n      mstore(0x40, 0x80)\n      jumpi(tag_1, lt(calldatasize, 0x04))\n      shr(0xe0, calldataload(0x00))\n      dup1\n      0x12065fe0\n      eq\n      tag_2\n      jumpi\n      dup1\n      0x38cc4831\n      eq\n      tag_3\n      jumpi\n      dup1\n      0x59c75ada\n      eq\n      tag_4\n      jumpi\n    tag_1:\n      0x00\n      dup1\n      revert\n        /* \"contracts/Receiver.sol\":1460:1556  function getBalance() public view  returns (uint) {... */\n    tag_2:\n      callvalue\n      dup1\n      iszero\n      tag_5\n      jumpi\n      0x00\n      dup1\n      revert\n    tag_5:\n      pop\n      tag_6\n      tag_7\n      jump\t// in\n    tag_6:\n      mload(0x40)\n      tag_8\n      swap2\n      swap1\n      tag_9\n      jump\t// in\n    tag_8:\n      mload(0x40)\n      dup1\n      swap2\n      sub\n      swap1\n      return\n        /* \"contracts/Receiver.sol\":1353:1452  function getAddress() public view  returns (address) {... */\n    tag_3:\n      callvalue\n      dup1\n      iszero\n      tag_10\n      jumpi\n      0x00\n      dup1\n      revert\n    tag_10:\n      pop\n      tag_11\n      tag_12\n      jump\t// in\n    tag_11:\n      mload(0x40)\n      tag_13\n      swap2\n      swap1\n      tag_14\n      jump\t// in\n    tag_13:\n      mload(0x40)\n      dup1\n      swap2\n      sub\n      swap1\n      return\n        /* \"contracts/Receiver.sol\":931:1343  function testCall(address payable _addr,uint _y) public payable {... */\n    tag_4:\n      tag_15\n      0x04\n      dup1\n      calldatasize\n      sub\n      dup2\n      add\n      swap1\n      tag_16\n      swap2\n      swap1\n      tag_17\n      jump\t// in\n    tag_16:\n      tag_18\n      jump\t// in\n    tag_15:\n      stop\n        /* \"contracts/Receiver.sol\":1460:1556  function getBalance() public view  returns (uint) {... */\n    tag_7:\n        /* \"contracts/Receiver.sol\":1504:1508  uint */\n      0x00\n        /* \"contracts/Receiver.sol\":1528:1536  receiver */\n      dup1\n      0x00\n      swap1\n      sload\n      swap1\n      0x0100\n      exp\n      swap1\n      div\n      0xffffffffffffffffffffffffffffffffffffffff\n      and\n        /* \"contracts/Receiver.sol\":1528:1547  receiver.getBalance */\n      0xffffffffffffffffffffffffffffffffffffffff\n      and\n      0x12065fe0\n        /* \"contracts/Receiver.sol\":1528:1549  receiver.getBalance() */\n      mload(0x40)\n      dup2\n      0xffffffff\n      and\n      0xe0\n      shl\n      dup2\n      mstore\n      0x04\n      add\n      0x20\n      mload(0x40)\n      dup1\n      dup4\n      sub\n      dup2\n      dup7\n      gas\n      staticcall\n      iszero\n      dup1\n      iszero\n      tag_21\n      jumpi\n      returndatasize\n      0x00\n      dup1\n      returndatacopy\n      revert(0x00, returndatasize)\n    tag_21:\n      pop\n      pop\n      pop\n      pop\n      mload(0x40)\n      returndatasize\n      not(0x1f)\n      0x1f\n      dup3\n      add\n      and\n      dup3\n      add\n      dup1\n      0x40\n      mstore\n      pop\n      dup2\n      add\n      swap1\n      tag_22\n      swap2\n      swap1\n      tag_23\n      jump\t// in\n    tag_22:\n        /* \"contracts/Receiver.sol\":1521:1549  return receiver.getBalance() */\n      swap1\n      pop\n        /* \"contracts/Receiver.sol\":1460:1556  function getBalance() public view  returns (uint) {... */\n      swap1\n      jump\t// out\n        /* \"contracts/Receiver.sol\":1353:1452  function getAddress() public view  returns (address) {... */\n    tag_12:\n        /* \"contracts/Receiver.sol\":1397:1404  address */\n      0x00\n        /* \"contracts/Receiver.sol\":1424:1432  receiver */\n      dup1\n      0x00\n      swap1\n      sload\n      swap1\n      0x0100\n      exp\n      swap1\n      div\n      0xffffffffffffffffffffffffffffffffffffffff\n      and\n        /* \"contracts/Receiver.sol\":1424:1443  receiver.getAddress */\n      0xffffffffffffffffffffffffffffffffffffffff\n      and\n      0x38cc4831\n        /* \"contracts/Receiver.sol\":1424:1445  receiver.getAddress() */\n      mload(0x40)\n      dup2\n      0xffffffff\n      and\n      0xe0\n      shl\n      dup2\n      mstore\n      0x04\n      add\n      0x20\n      mload(0x40)\n      dup1\n      dup4\n      sub\n      dup2\n      dup7\n      gas\n      staticcall\n      iszero\n      dup1\n      iszero\n      tag_26\n      jumpi\n      returndatasize\n      0x00\n      dup1\n      returndatacopy\n      revert(0x00, returndatasize)\n    tag_26:\n      pop\n      pop\n      pop\n      pop\n      mload(0x40)\n      returndatasize\n      not(0x1f)\n      0x1f\n      dup3\n      add\n      and\n      dup3\n      add\n      dup1\n      0x40\n      mstore\n      pop\n      dup2\n      add\n      swap1\n      tag_27\n      swap2\n      swap1\n      tag_28\n      jump\t// in\n    tag_27:\n        /* \"contracts/Receiver.sol\":1417:1445  return receiver.getAddress() */\n      swap1\n      pop\n        /* \"contracts/Receiver.sol\":1353:1452  function getAddress() public view  returns (address) {... */\n      swap1\n      jump\t// out\n        /* \"contracts/Receiver.sol\":931:1343  function testCall(address payable _addr,uint _y) public payable {... */\n    tag_18:\n        /* \"contracts/Receiver.sol\":1175:1187  bool success */\n      0x00\n        /* \"contracts/Receiver.sol\":1188:1205  bytes memory data */\n      dup1\n        /* \"contracts/Receiver.sol\":1209:1214  _addr */\n      dup4\n        /* \"contracts/Receiver.sol\":1209:1219  _addr.call */\n      0xffffffffffffffffffffffffffffffffffffffff\n      and\n        /* \"contracts/Receiver.sol\":1226:1235  msg.value */\n      callvalue\n        /* \"contracts/Receiver.sol\":1294:1296  _y */\n      dup5\n        /* \"contracts/Receiver.sol\":1237:1297  abi.encodeWithSignature(\"foo(string,uint256)\",\"call foo\",_y) */\n      add(0x24, mload(0x40))\n      tag_30\n      swap2\n      swap1\n      tag_31\n      jump\t// in\n    tag_30:\n      mload(0x40)\n      0x20\n      dup2\n      dup4\n      sub\n      sub\n      dup2\n      mstore\n      swap1\n      0x40\n      mstore\n      and(not(0xffffffffffffffffffffffffffffffffffffffffffffffffffffffff), 0x24ccab8f00000000000000000000000000000000000000000000000000000000)\n      0x20\n      dup3\n      add\n      dup1\n      mload\n      0xffffffffffffffffffffffffffffffffffffffffffffffffffffffff\n      dup4\n      dup2\n      dup4\n      and\n      or\n      dup4\n      mstore\n      pop\n      pop\n      pop\n      pop\n        /* \"contracts/Receiver.sol\":1209:1298  _addr.call{value:msg.value}(abi.encodeWithSignature(\"foo(string,uint256)\",\"call foo\",_y)) */\n      mload(0x40)\n      tag_32\n      swap2\n      swap1\n      tag_33\n      jump\t// in\n    tag_32:\n      0x00\n      mload(0x40)\n      dup1\n      dup4\n      sub\n      dup2\n      dup6\n      dup8\n      gas\n      call\n      swap3\n      pop\n      pop\n      pop\n      returndatasize\n      dup1\n      0x00\n      dup2\n      eq\n      tag_36\n      jumpi\n      mload(0x40)\n      swap2\n      pop\n      and(add(returndatasize, 0x3f), not(0x1f))\n      dup3\n      add\n      0x40\n      mstore\n      returndatasize\n      dup3\n      mstore\n      returndatasize\n      0x00\n      0x20\n      dup5\n      add\n      returndatacopy\n      jump(tag_35)\n    tag_36:\n      0x60\n      swap2\n      pop\n    tag_35:\n      pop\n        /* \"contracts/Receiver.sol\":1174:1298  (bool success,bytes memory data) = _addr.call{value:msg.value}(abi.encodeWithSignature(\"foo(string,uint256)\",\"call foo\",_y)) */\n      swap2\n      pop\n      swap2\n      pop\n        /* \"contracts/Receiver.sol\":1314:1336  Response(success,data) */\n      0x13848c3e38f8886f3f5d2ad9dff80d8092c2bbb8efd5b887a99c2c6cfc09ac2a\n        /* \"contracts/Receiver.sol\":1323:1330  success */\n      dup3\n        /* \"contracts/Receiver.sol\":1331:1335  data */\n      dup3\n        /* \"contracts/Receiver.sol\":1314:1336  Response(success,data) */\n      mload(0x40)\n      tag_37\n      swap3\n      swap2\n      swap1\n      tag_38\n      jump\t// in\n    tag_37:\n      mload(0x40)\n      dup1\n      swap2\n      sub\n      swap1\n      log1\n        /* \"contracts/Receiver.sol\":995:1343  {... */\n      pop\n      pop\n        /* \"contracts/Receiver.sol\":931:1343  function testCall(address payable _addr,uint _y) public payable {... */\n      pop\n      pop\n      jump\t// out\n        /* \"#utility.yul\":7:84   */\n    tag_39:\n        /* \"#utility.yul\":44:51   */\n      0x00\n        /* \"#utility.yul\":73:78   */\n      dup2\n        /* \"#utility.yul\":62:78   */\n      swap1\n      pop\n        /* \"#utility.yul\":7:84   */\n      swap2\n      swap1\n      pop\n      jump\t// out\n        /* \"#utility.yul\":90:208   */\n    tag_40:\n        /* \"#utility.yul\":177:201   */\n      tag_70\n        /* \"#utility.yul\":195:200   */\n      dup2\n        /* \"#utility.yul\":177:201   */\n      tag_39\n      jump\t// in\n    tag_70:\n        /* \"#utility.yul\":172:175   */\n      dup3\n        /* \"#utility.yul\":165:202   */\n      mstore\n        /* \"#utility.yul\":90:208   */\n      pop\n      pop\n      jump\t// out\n        /* \"#utility.yul\":214:436   */\n    tag_9:\n        /* \"#utility.yul\":307:311   */\n      0x00\n        /* \"#utility.yul\":345:347   */\n      0x20\n        /* \"#utility.yul\":334:343   */\n      dup3\n        /* \"#utility.yul\":330:348   */\n      add\n        /* \"#utility.yul\":322:348   */\n      swap1\n      pop\n        /* \"#utility.yul\":358:429   */\n      tag_72\n        /* \"#utility.yul\":426:427   */\n      0x00\n        /* \"#utility.yul\":415:424   */\n      dup4\n        /* \"#utility.yul\":411:428   */\n      add\n        /* \"#utility.yul\":402:408   */\n      dup5\n        /* \"#utility.yul\":358:429   */\n      tag_40\n      jump\t// in\n    tag_72:\n        /* \"#utility.yul\":214:436   */\n      swap3\n      swap2\n      pop\n      pop\n      jump\t// out\n        /* \"#utility.yul\":442:568   */\n    tag_41:\n        /* \"#utility.yul\":479:486   */\n      0x00\n        /* \"#utility.yul\":519:561   */\n      0xffffffffffffffffffffffffffffffffffffffff\n        /* \"#utility.yul\":512:517   */\n      dup3\n        /* \"#utility.yul\":508:562   */\n      and\n        /* \"#utility.yul\":497:562   */\n      swap1\n      pop\n        /* \"#utility.yul\":442:568   */\n      swap2\n      swap1\n      pop\n      jump\t// out\n        /* \"#utility.yul\":574:670   */\n    tag_42:\n        /* \"#utility.yul\":611:618   */\n      0x00\n        /* \"#utility.yul\":640:664   */\n      tag_75\n        /* \"#utility.yul\":658:663   */\n      dup3\n        /* \"#utility.yul\":640:664   */\n      tag_41\n      jump\t// in\n    tag_75:\n        /* \"#utility.yul\":629:664   */\n      swap1\n      pop\n        /* \"#utility.yul\":574:670   */\n      swap2\n      swap1\n      pop\n      jump\t// out\n        /* \"#utility.yul\":676:794   */\n    tag_43:\n        /* \"#utility.yul\":763:787   */\n      tag_77\n        /* \"#utility.yul\":781:786   */\n      dup2\n        /* \"#utility.yul\":763:787   */\n      tag_42\n      jump\t// in\n    tag_77:\n        /* \"#utility.yul\":758:761   */\n      dup3\n        /* \"#utility.yul\":751:788   */\n      mstore\n        /* \"#utility.yul\":676:794   */\n      pop\n      pop\n      jump\t// out\n        /* \"#utility.yul\":800:1022   */\n    tag_14:\n        /* \"#utility.yul\":893:897   */\n      0x00\n        /* \"#utility.yul\":931:933   */\n      0x20\n        /* \"#utility.yul\":920:929   */\n      dup3\n        /* \"#utility.yul\":916:934   */\n      add\n        /* \"#utility.yul\":908:934   */\n      swap1\n      pop\n        /* \"#utility.yul\":944:1015   */\n      tag_79\n        /* \"#utility.yul\":1012:1013   */\n      0x00\n        /* \"#utility.yul\":1001:1010   */\n      dup4\n        /* \"#utility.yul\":997:1014   */\n      add\n        /* \"#utility.yul\":988:994   */\n      dup5\n        /* \"#utility.yul\":944:1015   */\n      tag_43\n      jump\t// in\n    tag_79:\n        /* \"#utility.yul\":800:1022   */\n      swap3\n      swap2\n      pop\n      pop\n      jump\t// out\n        /* \"#utility.yul\":1109:1226   */\n    tag_45:\n        /* \"#utility.yul\":1218:1219   */\n      0x00\n        /* \"#utility.yul\":1215:1216   */\n      dup1\n        /* \"#utility.yul\":1208:1220   */\n      revert\n        /* \"#utility.yul\":1355:1459   */\n    tag_47:\n        /* \"#utility.yul\":1400:1407   */\n      0x00\n        /* \"#utility.yul\":1429:1453   */\n      tag_84\n        /* \"#utility.yul\":1447:1452   */\n      dup3\n        /* \"#utility.yul\":1429:1453   */\n      tag_41\n      jump\t// in\n    tag_84:\n        /* \"#utility.yul\":1418:1453   */\n      swap1\n      pop\n        /* \"#utility.yul\":1355:1459   */\n      swap2\n      swap1\n      pop\n      jump\t// out\n        /* \"#utility.yul\":1465:1603   */\n    tag_48:\n        /* \"#utility.yul\":1546:1578   */\n      tag_86\n        /* \"#utility.yul\":1572:1577   */\n      dup2\n        /* \"#utility.yul\":1546:1578   */\n      tag_47\n      jump\t// in\n    tag_86:\n        /* \"#utility.yul\":1539:1544   */\n      dup2\n        /* \"#utility.yul\":1536:1579   */\n      eq\n        /* \"#utility.yul\":1526:1597   */\n      tag_87\n      jumpi\n        /* \"#utility.yul\":1593:1594   */\n      0x00\n        /* \"#utility.yul\":1590:1591   */\n      dup1\n        /* \"#utility.yul\":1583:1595   */\n      revert\n        /* \"#utility.yul\":1526:1597   */\n    tag_87:\n        /* \"#utility.yul\":1465:1603   */\n      pop\n      jump\t// out\n        /* \"#utility.yul\":1609:1764   */\n    tag_49:\n        /* \"#utility.yul\":1663:1668   */\n      0x00\n        /* \"#utility.yul\":1701:1707   */\n      dup2\n        /* \"#utility.yul\":1688:1708   */\n      calldataload\n        /* \"#utility.yul\":1679:1708   */\n      swap1\n      pop\n        /* \"#utility.yul\":1717:1758   */\n      tag_89\n        /* \"#utility.yul\":1752:1757   */\n      dup2\n        /* \"#utility.yul\":1717:1758   */\n      tag_48\n      jump\t// in\n    tag_89:\n        /* \"#utility.yul\":1609:1764   */\n      swap3\n      swap2\n      pop\n      pop\n      jump\t// out\n        /* \"#utility.yul\":1770:1892   */\n    tag_50:\n        /* \"#utility.yul\":1843:1867   */\n      tag_91\n        /* \"#utility.yul\":1861:1866   */\n      dup2\n        /* \"#utility.yul\":1843:1867   */\n      tag_39\n      jump\t// in\n    tag_91:\n        /* \"#utility.yul\":1836:1841   */\n      dup2\n        /* \"#utility.yul\":1833:1868   */\n      eq\n        /* \"#utility.yul\":1823:1886   */\n      tag_92\n      jumpi\n        /* \"#utility.yul\":1882:1883   */\n      0x00\n        /* \"#utility.yul\":1879:1880   */\n      dup1\n        /* \"#utility.yul\":1872:1884   */\n      revert\n        /* \"#utility.yul\":1823:1886   */\n    tag_92:\n        /* \"#utility.yul\":1770:1892   */\n      pop\n      jump\t// out\n        /* \"#utility.yul\":1898:2037   */\n    tag_51:\n        /* \"#utility.yul\":1944:1949   */\n      0x00\n        /* \"#utility.yul\":1982:1988   */\n      dup2\n        /* \"#utility.yul\":1969:1989   */\n      calldataload\n        /* \"#utility.yul\":1960:1989   */\n      swap1\n      pop\n        /* \"#utility.yul\":1998:2031   */\n      tag_94\n        /* \"#utility.yul\":2025:2030   */\n      dup2\n        /* \"#utility.yul\":1998:2031   */\n      tag_50\n      jump\t// in\n    tag_94:\n        /* \"#utility.yul\":1898:2037   */\n      swap3\n      swap2\n      pop\n      pop\n      jump\t// out\n        /* \"#utility.yul\":2043:2533   */\n    tag_17:\n        /* \"#utility.yul\":2119:2125   */\n      0x00\n        /* \"#utility.yul\":2127:2133   */\n      dup1\n        /* \"#utility.yul\":2176:2178   */\n      0x40\n        /* \"#utility.yul\":2164:2173   */\n      dup4\n        /* \"#utility.yul\":2155:2162   */\n      dup6\n        /* \"#utility.yul\":2151:2174   */\n      sub\n        /* \"#utility.yul\":2147:2179   */\n      slt\n        /* \"#utility.yul\":2144:2263   */\n      iszero\n      tag_96\n      jumpi\n        /* \"#utility.yul\":2182:2261   */\n      tag_97\n      tag_45\n      jump\t// in\n    tag_97:\n        /* \"#utility.yul\":2144:2263   */\n    tag_96:\n        /* \"#utility.yul\":2302:2303   */\n      0x00\n        /* \"#utility.yul\":2327:2388   */\n      tag_98\n        /* \"#utility.yul\":2380:2387   */\n      dup6\n        /* \"#utility.yul\":2371:2377   */\n      dup3\n        /* \"#utility.yul\":2360:2369   */\n      dup7\n        /* \"#utility.yul\":2356:2378   */\n      add\n        /* \"#utility.yul\":2327:2388   */\n      tag_49\n      jump\t// in\n    tag_98:\n        /* \"#utility.yul\":2317:2388   */\n      swap3\n      pop\n        /* \"#utility.yul\":2273:2398   */\n      pop\n        /* \"#utility.yul\":2437:2439   */\n      0x20\n        /* \"#utility.yul\":2463:2516   */\n      tag_99\n        /* \"#utility.yul\":2508:2515   */\n      dup6\n        /* \"#utility.yul\":2499:2505   */\n      dup3\n        /* \"#utility.yul\":2488:2497   */\n      dup7\n        /* \"#utility.yul\":2484:2506   */\n      add\n        /* \"#utility.yul\":2463:2516   */\n      tag_51\n      jump\t// in\n    tag_99:\n        /* \"#utility.yul\":2453:2516   */\n      swap2\n      pop\n        /* \"#utility.yul\":2408:2526   */\n      pop\n        /* \"#utility.yul\":2043:2533   */\n      swap3\n      pop\n      swap3\n      swap1\n      pop\n      jump\t// out\n        /* \"#utility.yul\":2539:2682   */\n    tag_52:\n        /* \"#utility.yul\":2596:2601   */\n      0x00\n        /* \"#utility.yul\":2627:2633   */\n      dup2\n        /* \"#utility.yul\":2621:2634   */\n      mload\n        /* \"#utility.yul\":2612:2634   */\n      swap1\n      pop\n        /* \"#utility.yul\":2643:2676   */\n      tag_101\n        /* \"#utility.yul\":2670:2675   */\n      dup2\n        /* \"#utility.yul\":2643:2676   */\n      tag_50\n      jump\t// in\n    tag_101:\n        /* \"#utility.yul\":2539:2682   */\n      swap3\n      swap2\n      pop\n      pop\n      jump\t// out\n        /* \"#utility.yul\":2688:3039   */\n    tag_23:\n        /* \"#utility.yul\":2758:2764   */\n      0x00\n        /* \"#utility.yul\":2807:2809   */\n      0x20\n        /* \"#utility.yul\":2795:2804   */\n      dup3\n        /* \"#utility.yul\":2786:2793   */\n      dup5\n        /* \"#utility.yul\":2782:2805   */\n      sub\n        /* \"#utility.yul\":2778:2810   */\n      slt\n        /* \"#utility.yul\":2775:2894   */\n      iszero\n      tag_103\n      jumpi\n        /* \"#utility.yul\":2813:2892   */\n      tag_104\n      tag_45\n      jump\t// in\n    tag_104:\n        /* \"#utility.yul\":2775:2894   */\n    tag_103:\n        /* \"#utility.yul\":2933:2934   */\n      0x00\n        /* \"#utility.yul\":2958:3022   */\n      tag_105\n        /* \"#utility.yul\":3014:3021   */\n      dup5\n        /* \"#utility.yul\":3005:3011   */\n      dup3\n        /* \"#utility.yul\":2994:3003   */\n      dup6\n        /* \"#utility.yul\":2990:3012   */\n      add\n        /* \"#utility.yul\":2958:3022   */\n      tag_52\n      jump\t// in\n    tag_105:\n        /* \"#utility.yul\":2948:3022   */\n      swap2\n      pop\n        /* \"#utility.yul\":2904:3032   */\n      pop\n        /* \"#utility.yul\":2688:3039   */\n      swap3\n      swap2\n      pop\n      pop\n      jump\t// out\n        /* \"#utility.yul\":3045:3167   */\n    tag_53:\n        /* \"#utility.yul\":3118:3142   */\n      tag_107\n        /* \"#utility.yul\":3136:3141   */\n      dup2\n        /* \"#utility.yul\":3118:3142   */\n      tag_42\n      jump\t// in\n    tag_107:\n        /* \"#utility.yul\":3111:3116   */\n      dup2\n        /* \"#utility.yul\":3108:3143   */\n      eq\n        /* \"#utility.yul\":3098:3161   */\n      tag_108\n      jumpi\n        /* \"#utility.yul\":3157:3158   */\n      0x00\n        /* \"#utility.yul\":3154:3155   */\n      dup1\n        /* \"#utility.yul\":3147:3159   */\n      revert\n        /* \"#utility.yul\":3098:3161   */\n    tag_108:\n        /* \"#utility.yul\":3045:3167   */\n      pop\n      jump\t// out\n        /* \"#utility.yul\":3173:3316   */\n    tag_54:\n        /* \"#utility.yul\":3230:3235   */\n      0x00\n        /* \"#utility.yul\":3261:3267   */\n      dup2\n        /* \"#utility.yul\":3255:3268   */\n      mload\n        /* \"#utility.yul\":3246:3268   */\n      swap1\n      pop\n        /* \"#utility.yul\":3277:3310   */\n      tag_110\n        /* \"#utility.yul\":3304:3309   */\n      dup2\n        /* \"#utility.yul\":3277:3310   */\n      tag_53\n      jump\t// in\n    tag_110:\n        /* \"#utility.yul\":3173:3316   */\n      swap3\n      swap2\n      pop\n      pop\n      jump\t// out\n        /* \"#utility.yul\":3322:3673   */\n    tag_28:\n        /* \"#utility.yul\":3392:3398   */\n      0x00\n        /* \"#utility.yul\":3441:3443   */\n      0x20\n        /* \"#utility.yul\":3429:3438   */\n      dup3\n        /* \"#utility.yul\":3420:3427   */\n      dup5\n        /* \"#utility.yul\":3416:3439   */\n      sub\n        /* \"#utility.yul\":3412:3444   */\n      slt\n        /* \"#utility.yul\":3409:3528   */\n      iszero\n      tag_112\n      jumpi\n        /* \"#utility.yul\":3447:3526   */\n      tag_113\n      tag_45\n      jump\t// in\n    tag_113:\n        /* \"#utility.yul\":3409:3528   */\n    tag_112:\n        /* \"#utility.yul\":3567:3568   */\n      0x00\n        /* \"#utility.yul\":3592:3656   */\n      tag_114\n        /* \"#utility.yul\":3648:3655   */\n      dup5\n        /* \"#utility.yul\":3639:3645   */\n      dup3\n        /* \"#utility.yul\":3628:3637   */\n      dup6\n        /* \"#utility.yul\":3624:3646   */\n      add\n        /* \"#utility.yul\":3592:3656   */\n      tag_54\n      jump\t// in\n    tag_114:\n        /* \"#utility.yul\":3582:3656   */\n      swap2\n      pop\n        /* \"#utility.yul\":3538:3666   */\n      pop\n        /* \"#utility.yul\":3322:3673   */\n      swap3\n      swap2\n      pop\n      pop\n      jump\t// out\n        /* \"#utility.yul\":3679:3848   */\n    tag_55:\n        /* \"#utility.yul\":3763:3774   */\n      0x00\n        /* \"#utility.yul\":3797:3803   */\n      dup3\n        /* \"#utility.yul\":3792:3795   */\n      dup3\n        /* \"#utility.yul\":3785:3804   */\n      mstore\n        /* \"#utility.yul\":3837:3841   */\n      0x20\n        /* \"#utility.yul\":3832:3835   */\n      dup3\n        /* \"#utility.yul\":3828:3842   */\n      add\n        /* \"#utility.yul\":3813:3842   */\n      swap1\n      pop\n        /* \"#utility.yul\":3679:3848   */\n      swap3\n      swap2\n      pop\n      pop\n      jump\t// out\n        /* \"#utility.yul\":3854:4012   */\n    tag_56:\n        /* \"#utility.yul\":3994:4004   */\n      0x63616c6c20666f6f000000000000000000000000000000000000000000000000\n        /* \"#utility.yul\":3990:3991   */\n      0x00\n        /* \"#utility.yul\":3982:3988   */\n      dup3\n        /* \"#utility.yul\":3978:3992   */\n      add\n        /* \"#utility.yul\":3971:4005   */\n      mstore\n        /* \"#utility.yul\":3854:4012   */\n      pop\n      jump\t// out\n        /* \"#utility.yul\":4018:4383   */\n    tag_57:\n        /* \"#utility.yul\":4160:4163   */\n      0x00\n        /* \"#utility.yul\":4181:4247   */\n      tag_118\n        /* \"#utility.yul\":4245:4246   */\n      0x08\n        /* \"#utility.yul\":4240:4243   */\n      dup4\n        /* \"#utility.yul\":4181:4247   */\n      tag_55\n      jump\t// in\n    tag_118:\n        /* \"#utility.yul\":4174:4247   */\n      swap2\n      pop\n        /* \"#utility.yul\":4256:4349   */\n      tag_119\n        /* \"#utility.yul\":4345:4348   */\n      dup3\n        /* \"#utility.yul\":4256:4349   */\n      tag_56\n      jump\t// in\n    tag_119:\n        /* \"#utility.yul\":4374:4376   */\n      0x20\n        /* \"#utility.yul\":4369:4372   */\n      dup3\n        /* \"#utility.yul\":4365:4377   */\n      add\n        /* \"#utility.yul\":4358:4377   */\n      swap1\n      pop\n        /* \"#utility.yul\":4018:4383   */\n      swap2\n      swap1\n      pop\n      jump\t// out\n        /* \"#utility.yul\":4389:4918   */\n    tag_31:\n        /* \"#utility.yul\":4583:4587   */\n      0x00\n        /* \"#utility.yul\":4621:4623   */\n      0x40\n        /* \"#utility.yul\":4610:4619   */\n      dup3\n        /* \"#utility.yul\":4606:4624   */\n      add\n        /* \"#utility.yul\":4598:4624   */\n      swap1\n      pop\n        /* \"#utility.yul\":4670:4679   */\n      dup2\n        /* \"#utility.yul\":4664:4668   */\n      dup2\n        /* \"#utility.yul\":4660:4680   */\n      sub\n        /* \"#utility.yul\":4656:4657   */\n      0x00\n        /* \"#utility.yul\":4645:4654   */\n      dup4\n        /* \"#utility.yul\":4641:4658   */\n      add\n        /* \"#utility.yul\":4634:4681   */\n      mstore\n        /* \"#utility.yul\":4698:4829   */\n      tag_121\n        /* \"#utility.yul\":4824:4828   */\n      dup2\n        /* \"#utility.yul\":4698:4829   */\n      tag_57\n      jump\t// in\n    tag_121:\n        /* \"#utility.yul\":4690:4829   */\n      swap1\n      pop\n        /* \"#utility.yul\":4839:4911   */\n      tag_122\n        /* \"#utility.yul\":4907:4909   */\n      0x20\n        /* \"#utility.yul\":4896:4905   */\n      dup4\n        /* \"#utility.yul\":4892:4910   */\n      add\n        /* \"#utility.yul\":4883:4889   */\n      dup5\n        /* \"#utility.yul\":4839:4911   */\n      tag_40\n      jump\t// in\n    tag_122:\n        /* \"#utility.yul\":4389:4918   */\n      swap3\n      swap2\n      pop\n      pop\n      jump\t// out\n        /* \"#utility.yul\":4924:5022   */\n    tag_58:\n        /* \"#utility.yul\":4975:4981   */\n      0x00\n        /* \"#utility.yul\":5009:5014   */\n      dup2\n        /* \"#utility.yul\":5003:5015   */\n      mload\n        /* \"#utility.yul\":4993:5015   */\n      swap1\n      pop\n        /* \"#utility.yul\":4924:5022   */\n      swap2\n      swap1\n      pop\n      jump\t// out\n        /* \"#utility.yul\":5028:5175   */\n    tag_59:\n        /* \"#utility.yul\":5129:5140   */\n      0x00\n        /* \"#utility.yul\":5166:5169   */\n      dup2\n        /* \"#utility.yul\":5151:5169   */\n      swap1\n      pop\n        /* \"#utility.yul\":5028:5175   */\n      swap3\n      swap2\n      pop\n      pop\n      jump\t// out\n        /* \"#utility.yul\":5181:5320   */\n    tag_60:\n        /* \"#utility.yul\":5270:5276   */\n      dup3\n        /* \"#utility.yul\":5265:5268   */\n      dup2\n        /* \"#utility.yul\":5260:5263   */\n      dup4\n        /* \"#utility.yul\":5254:5277   */\n      mcopy\n        /* \"#utility.yul\":5311:5312   */\n      0x00\n        /* \"#utility.yul\":5302:5308   */\n      dup4\n        /* \"#utility.yul\":5297:5300   */\n      dup4\n        /* \"#utility.yul\":5293:5309   */\n      add\n        /* \"#utility.yul\":5286:5313   */\n      mstore\n        /* \"#utility.yul\":5181:5320   */\n      pop\n      pop\n      pop\n      jump\t// out\n        /* \"#utility.yul\":5326:5712   */\n    tag_61:\n        /* \"#utility.yul\":5430:5433   */\n      0x00\n        /* \"#utility.yul\":5458:5496   */\n      tag_127\n        /* \"#utility.yul\":5490:5495   */\n      dup3\n        /* \"#utility.yul\":5458:5496   */\n      tag_58\n      jump\t// in\n    tag_127:\n        /* \"#utility.yul\":5512:5600   */\n      tag_128\n        /* \"#utility.yul\":5593:5599   */\n      dup2\n        /* \"#utility.yul\":5588:5591   */\n      dup6\n        /* \"#utility.yul\":5512:5600   */\n      tag_59\n      jump\t// in\n    tag_128:\n        /* \"#utility.yul\":5505:5600   */\n      swap4\n      pop\n        /* \"#utility.yul\":5609:5674   */\n      tag_129\n        /* \"#utility.yul\":5667:5673   */\n      dup2\n        /* \"#utility.yul\":5662:5665   */\n      dup6\n        /* \"#utility.yul\":5655:5659   */\n      0x20\n        /* \"#utility.yul\":5648:5653   */\n      dup7\n        /* \"#utility.yul\":5644:5660   */\n      add\n        /* \"#utility.yul\":5609:5674   */\n      tag_60\n      jump\t// in\n    tag_129:\n        /* \"#utility.yul\":5699:5705   */\n      dup1\n        /* \"#utility.yul\":5694:5697   */\n      dup5\n        /* \"#utility.yul\":5690:5706   */\n      add\n        /* \"#utility.yul\":5683:5706   */\n      swap2\n      pop\n        /* \"#utility.yul\":5434:5712   */\n      pop\n        /* \"#utility.yul\":5326:5712   */\n      swap3\n      swap2\n      pop\n      pop\n      jump\t// out\n        /* \"#utility.yul\":5718:5989   */\n    tag_33:\n        /* \"#utility.yul\":5848:5851   */\n      0x00\n        /* \"#utility.yul\":5870:5963   */\n      tag_131\n        /* \"#utility.yul\":5959:5962   */\n      dup3\n        /* \"#utility.yul\":5950:5956   */\n      dup5\n        /* \"#utility.yul\":5870:5963   */\n      tag_61\n      jump\t// in\n    tag_131:\n        /* \"#utility.yul\":5863:5963   */\n      swap2\n      pop\n        /* \"#utility.yul\":5980:5983   */\n      dup2\n        /* \"#utility.yul\":5973:5983   */\n      swap1\n      pop\n        /* \"#utility.yul\":5718:5989   */\n      swap3\n      swap2\n      pop\n      pop\n      jump\t// out\n        /* \"#utility.yul\":5995:6085   */\n    tag_62:\n        /* \"#utility.yul\":6029:6036   */\n      0x00\n        /* \"#utility.yul\":6072:6077   */\n      dup2\n        /* \"#utility.yul\":6065:6078   */\n      iszero\n        /* \"#utility.yul\":6058:6079   */\n      iszero\n        /* \"#utility.yul\":6047:6079   */\n      swap1\n      pop\n        /* \"#utility.yul\":5995:6085   */\n      swap2\n      swap1\n      pop\n      jump\t// out\n        /* \"#utility.yul\":6091:6200   */\n    tag_63:\n        /* \"#utility.yul\":6172:6193   */\n      tag_134\n        /* \"#utility.yul\":6187:6192   */\n      dup2\n        /* \"#utility.yul\":6172:6193   */\n      tag_62\n      jump\t// in\n    tag_134:\n        /* \"#utility.yul\":6167:6170   */\n      dup3\n        /* \"#utility.yul\":6160:6194   */\n      mstore\n        /* \"#utility.yul\":6091:6200   */\n      pop\n      pop\n      jump\t// out\n        /* \"#utility.yul\":6206:6374   */\n    tag_64:\n        /* \"#utility.yul\":6289:6300   */\n      0x00\n        /* \"#utility.yul\":6323:6329   */\n      dup3\n        /* \"#utility.yul\":6318:6321   */\n      dup3\n        /* \"#utility.yul\":6311:6330   */\n      mstore\n        /* \"#utility.yul\":6363:6367   */\n      0x20\n        /* \"#utility.yul\":6358:6361   */\n      dup3\n        /* \"#utility.yul\":6354:6368   */\n      add\n        /* \"#utility.yul\":6339:6368   */\n      swap1\n      pop\n        /* \"#utility.yul\":6206:6374   */\n      swap3\n      swap2\n      pop\n      pop\n      jump\t// out\n        /* \"#utility.yul\":6380:6482   */\n    tag_65:\n        /* \"#utility.yul\":6421:6427   */\n      0x00\n        /* \"#utility.yul\":6472:6474   */\n      0x1f\n        /* \"#utility.yul\":6468:6475   */\n      not\n        /* \"#utility.yul\":6463:6465   */\n      0x1f\n        /* \"#utility.yul\":6456:6461   */\n      dup4\n        /* \"#utility.yul\":6452:6466   */\n      add\n        /* \"#utility.yul\":6448:6476   */\n      and\n        /* \"#utility.yul\":6438:6476   */\n      swap1\n      pop\n        /* \"#utility.yul\":6380:6482   */\n      swap2\n      swap1\n      pop\n      jump\t// out\n        /* \"#utility.yul\":6488:6861   */\n    tag_66:\n        /* \"#utility.yul\":6574:6577   */\n      0x00\n        /* \"#utility.yul\":6602:6640   */\n      tag_138\n        /* \"#utility.yul\":6634:6639   */\n      dup3\n        /* \"#utility.yul\":6602:6640   */\n      tag_58\n      jump\t// in\n    tag_138:\n        /* \"#utility.yul\":6656:6726   */\n      tag_139\n        /* \"#utility.yul\":6719:6725   */\n      dup2\n        /* \"#utility.yul\":6714:6717   */\n      dup6\n        /* \"#utility.yul\":6656:6726   */\n      tag_64\n      jump\t// in\n    tag_139:\n        /* \"#utility.yul\":6649:6726   */\n      swap4\n      pop\n        /* \"#utility.yul\":6735:6800   */\n      tag_140\n        /* \"#utility.yul\":6793:6799   */\n      dup2\n        /* \"#utility.yul\":6788:6791   */\n      dup6\n        /* \"#utility.yul\":6781:6785   */\n      0x20\n        /* \"#utility.yul\":6774:6779   */\n      dup7\n        /* \"#utility.yul\":6770:6786   */\n      add\n        /* \"#utility.yul\":6735:6800   */\n      tag_60\n      jump\t// in\n    tag_140:\n        /* \"#utility.yul\":6825:6854   */\n      tag_141\n        /* \"#utility.yul\":6847:6853   */\n      dup2\n        /* \"#utility.yul\":6825:6854   */\n      tag_65\n      jump\t// in\n    tag_141:\n        /* \"#utility.yul\":6820:6823   */\n      dup5\n        /* \"#utility.yul\":6816:6855   */\n      add\n        /* \"#utility.yul\":6809:6855   */\n      swap2\n      pop\n        /* \"#utility.yul\":6578:6861   */\n      pop\n        /* \"#utility.yul\":6488:6861   */\n      swap3\n      swap2\n      pop\n      pop\n      jump\t// out\n        /* \"#utility.yul\":6867:7274   */\n    tag_38:\n        /* \"#utility.yul\":7000:7004   */\n      0x00\n        /* \"#utility.yul\":7038:7040   */\n      0x40\n        /* \"#utility.yul\":7027:7036   */\n      dup3\n        /* \"#utility.yul\":7023:7041   */\n      add\n        /* \"#utility.yul\":7015:7041   */\n      swap1\n      pop\n        /* \"#utility.yul\":7051:7116   */\n      tag_143\n        /* \"#utility.yul\":7113:7114   */\n      0x00\n        /* \"#utility.yul\":7102:7111   */\n      dup4\n        /* \"#utility.yul\":7098:7115   */\n      add\n        /* \"#utility.yul\":7089:7095   */\n      dup6\n        /* \"#utility.yul\":7051:7116   */\n      tag_63\n      jump\t// in\n    tag_143:\n        /* \"#utility.yul\":7163:7172   */\n      dup2\n        /* \"#utility.yul\":7157:7161   */\n      dup2\n        /* \"#utility.yul\":7153:7173   */\n      sub\n        /* \"#utility.yul\":7148:7150   */\n      0x20\n        /* \"#utility.yul\":7137:7146   */\n      dup4\n        /* \"#utility.yul\":7133:7151   */\n      add\n        /* \"#utility.yul\":7126:7174   */\n      mstore\n        /* \"#utility.yul\":7191:7267   */\n      tag_144\n        /* \"#utility.yul\":7262:7266   */\n      dup2\n        /* \"#utility.yul\":7253:7259   */\n      dup5\n        /* \"#utility.yul\":7191:7267   */\n      tag_66\n      jump\t// in\n    tag_144:\n        /* \"#utility.yul\":7183:7267   */\n      swap1\n      pop\n        /* \"#utility.yul\":6867:7274   */\n      swap4\n      swap3\n      pop\n      pop\n      pop\n      jump\t// out\n\n    auxdata: 0xa2646970667358221220aa6d51c9174202abfe48bde08d4500181206e9d3305ccc418c907006c9f71a3e64736f6c634300081a0033\n}\n\nsub_1: assembly {\n        /* \"contracts/Receiver.sol\":57:780  contract Receiver {... */\n      mstore(0x40, 0x80)\n      callvalue\n      dup1\n      iszero\n      tag_1\n      jumpi\n      0x00\n      dup1\n      revert\n    tag_1:\n      pop\n      dataSize(sub_0)\n      dup1\n      dataOffset(sub_0)\n      0x00\n      codecopy\n      0x00\n      return\n    stop\n\n    sub_0: assembly {\n            /* \"contracts/Receiver.sol\":57:780  contract Receiver {... */\n          mstore(0x40, 0x80)\n          jumpi(tag_1, lt(calldatasize, 0x04))\n          shr(0xe0, calldataload(0x00))\n          dup1\n          0x12065fe0\n          eq\n          tag_3\n          jumpi\n          dup1\n          0x24ccab8f\n          eq\n          tag_4\n          jumpi\n          dup1\n          0x38cc4831\n          eq\n          tag_5\n          jumpi\n          jump(tag_2)\n        tag_1:\n          jumpi(tag_2, calldatasize)\n            /* \"contracts/Receiver.sol\":200:251  Received(msg.sender,msg.value,\"receive was called\") */\n          0x59e04c3f0d44b7caf6e8ef854b61d9a51cf1960d7a88ff6356cc5e946b4b5832\n            /* \"contracts/Receiver.sol\":209:219  msg.sender */\n          caller\n            /* \"contracts/Receiver.sol\":220:229  msg.value */\n          callvalue\n            /* \"contracts/Receiver.sol\":200:251  Received(msg.sender,msg.value,\"receive was called\") */\n          mload(0x40)\n          tag_8\n          swap3\n          swap2\n          swap1\n          tag_9\n          jump\t// in\n        tag_8:\n          mload(0x40)\n          dup1\n          swap2\n          sub\n          swap1\n          log1\n            /* \"contracts/Receiver.sol\":57:780  contract Receiver {... */\n          stop\n        tag_2:\n            /* \"contracts/Receiver.sol\":323:380  Received(msg.sender,msg.value,\"fallback was called12312\") */\n          0x59e04c3f0d44b7caf6e8ef854b61d9a51cf1960d7a88ff6356cc5e946b4b5832\n            /* \"contracts/Receiver.sol\":332:342  msg.sender */\n          caller\n            /* \"contracts/Receiver.sol\":343:352  msg.value */\n          callvalue\n            /* \"contracts/Receiver.sol\":323:380  Received(msg.sender,msg.value,\"fallback was called12312\") */\n          mload(0x40)\n          tag_12\n          swap3\n          swap2\n          swap1\n          tag_13\n          jump\t// in\n        tag_12:\n          mload(0x40)\n          dup1\n          swap2\n          sub\n          swap1\n          log1\n            /* \"contracts/Receiver.sol\":57:780  contract Receiver {... */\n          stop\n            /* \"contracts/Receiver.sol\":683:778  function getBalance() public view  returns (uint) {... */\n        tag_3:\n          callvalue\n          dup1\n          iszero\n          tag_14\n          jumpi\n          0x00\n          dup1\n          revert\n        tag_14:\n          pop\n          tag_15\n          tag_16\n          jump\t// in\n        tag_15:\n          mload(0x40)\n          tag_17\n          swap2\n          swap1\n          tag_18\n          jump\t// in\n        tag_17:\n          mload(0x40)\n          dup1\n          swap2\n          sub\n          swap1\n          return\n            /* \"contracts/Receiver.sol\":490:673  function foo(string memory _message ,uint256 _y) public payable  returns (uint){... */\n        tag_4:\n          tag_19\n          0x04\n          dup1\n          calldatasize\n          sub\n          dup2\n          add\n          swap1\n          tag_20\n          swap2\n          swap1\n          tag_21\n          jump\t// in\n        tag_20:\n          tag_22\n          jump\t// in\n        tag_19:\n          mload(0x40)\n          tag_23\n          swap2\n          swap1\n          tag_18\n          jump\t// in\n        tag_23:\n          mload(0x40)\n          dup1\n          swap2\n          sub\n          swap1\n          return\n            /* \"contracts/Receiver.sol\":393:484  function getAddress() public view  returns (address) {... */\n        tag_5:\n          callvalue\n          dup1\n          iszero\n          tag_24\n          jumpi\n          0x00\n          dup1\n          revert\n        tag_24:\n          pop\n          tag_25\n          tag_26\n          jump\t// in\n        tag_25:\n          mload(0x40)\n          tag_27\n          swap2\n          swap1\n          tag_28\n          jump\t// in\n        tag_27:\n          mload(0x40)\n          dup1\n          swap2\n          sub\n          swap1\n          return\n            /* \"contracts/Receiver.sol\":683:778  function getBalance() public view  returns (uint) {... */\n        tag_16:\n            /* \"contracts/Receiver.sol\":727:731  uint */\n          0x00\n            /* \"contracts/Receiver.sol\":750:771  address(this).balance */\n          selfbalance\n            /* \"contracts/Receiver.sol\":743:771  return address(this).balance */\n          swap1\n          pop\n            /* \"contracts/Receiver.sol\":683:778  function getBalance() public view  returns (uint) {... */\n          swap1\n          jump\t// out\n            /* \"contracts/Receiver.sol\":490:673  function foo(string memory _message ,uint256 _y) public payable  returns (uint){... */\n        tag_22:\n            /* \"contracts/Receiver.sol\":564:568  uint */\n          0x00\n            /* \"contracts/Receiver.sol\":608:647  Received(msg.sender,msg.value,_message) */\n          0x59e04c3f0d44b7caf6e8ef854b61d9a51cf1960d7a88ff6356cc5e946b4b5832\n            /* \"contracts/Receiver.sol\":617:627  msg.sender */\n          caller\n            /* \"contracts/Receiver.sol\":628:637  msg.value */\n          callvalue\n            /* \"contracts/Receiver.sol\":638:646  _message */\n          dup6\n            /* \"contracts/Receiver.sol\":608:647  Received(msg.sender,msg.value,_message) */\n          mload(0x40)\n          tag_31\n          swap4\n          swap3\n          swap2\n          swap1\n          tag_32\n          jump\t// in\n        tag_31:\n          mload(0x40)\n          dup1\n          swap2\n          sub\n          swap1\n          log1\n            /* \"contracts/Receiver.sol\":664:666  _y */\n          dup2\n            /* \"contracts/Receiver.sol\":657:666  return _y */\n          swap1\n          pop\n            /* \"contracts/Receiver.sol\":490:673  function foo(string memory _message ,uint256 _y) public payable  returns (uint){... */\n          swap3\n          swap2\n          pop\n          pop\n          jump\t// out\n            /* \"contracts/Receiver.sol\":393:484  function getAddress() public view  returns (address) {... */\n        tag_26:\n            /* \"contracts/Receiver.sol\":437:444  address */\n          0x00\n            /* \"contracts/Receiver.sol\":472:476  this */\n          address\n            /* \"contracts/Receiver.sol\":457:477  return address(this) */\n          swap1\n          pop\n            /* \"contracts/Receiver.sol\":393:484  function getAddress() public view  returns (address) {... */\n          swap1\n          jump\t// out\n            /* \"#utility.yul\":7:133   */\n        tag_34:\n            /* \"#utility.yul\":44:51   */\n          0x00\n            /* \"#utility.yul\":84:126   */\n          0xffffffffffffffffffffffffffffffffffffffff\n            /* \"#utility.yul\":77:82   */\n          dup3\n            /* \"#utility.yul\":73:127   */\n          and\n            /* \"#utility.yul\":62:127   */\n          swap1\n          pop\n            /* \"#utility.yul\":7:133   */\n          swap2\n          swap1\n          pop\n          jump\t// out\n            /* \"#utility.yul\":139:235   */\n        tag_35:\n            /* \"#utility.yul\":176:183   */\n          0x00\n            /* \"#utility.yul\":205:229   */\n          tag_65\n            /* \"#utility.yul\":223:228   */\n          dup3\n            /* \"#utility.yul\":205:229   */\n          tag_34\n          jump\t// in\n        tag_65:\n            /* \"#utility.yul\":194:229   */\n          swap1\n          pop\n            /* \"#utility.yul\":139:235   */\n          swap2\n          swap1\n          pop\n          jump\t// out\n            /* \"#utility.yul\":241:359   */\n        tag_36:\n            /* \"#utility.yul\":328:352   */\n          tag_67\n            /* \"#utility.yul\":346:351   */\n          dup2\n            /* \"#utility.yul\":328:352   */\n          tag_35\n          jump\t// in\n        tag_67:\n            /* \"#utility.yul\":323:326   */\n          dup3\n            /* \"#utility.yul\":316:353   */\n          mstore\n            /* \"#utility.yul\":241:359   */\n          pop\n          pop\n          jump\t// out\n            /* \"#utility.yul\":365:442   */\n        tag_37:\n            /* \"#utility.yul\":402:409   */\n          0x00\n            /* \"#utility.yul\":431:436   */\n          dup2\n            /* \"#utility.yul\":420:436   */\n          swap1\n          pop\n            /* \"#utility.yul\":365:442   */\n          swap2\n          swap1\n          pop\n          jump\t// out\n            /* \"#utility.yul\":448:566   */\n        tag_38:\n            /* \"#utility.yul\":535:559   */\n          tag_70\n            /* \"#utility.yul\":553:558   */\n          dup2\n            /* \"#utility.yul\":535:559   */\n          tag_37\n          jump\t// in\n        tag_70:\n            /* \"#utility.yul\":530:533   */\n          dup3\n            /* \"#utility.yul\":523:560   */\n          mstore\n            /* \"#utility.yul\":448:566   */\n          pop\n          pop\n          jump\t// out\n            /* \"#utility.yul\":572:741   */\n        tag_39:\n            /* \"#utility.yul\":656:667   */\n          0x00\n            /* \"#utility.yul\":690:696   */\n          dup3\n            /* \"#utility.yul\":685:688   */\n          dup3\n            /* \"#utility.yul\":678:697   */\n          mstore\n            /* \"#utility.yul\":730:734   */\n          0x20\n            /* \"#utility.yul\":725:728   */\n          dup3\n            /* \"#utility.yul\":721:735   */\n          add\n            /* \"#utility.yul\":706:735   */\n          swap1\n          pop\n            /* \"#utility.yul\":572:741   */\n          swap3\n          swap2\n          pop\n          pop\n          jump\t// out\n            /* \"#utility.yul\":747:915   */\n        tag_40:\n            /* \"#utility.yul\":887:907   */\n          0x72656365697665207761732063616c6c65640000000000000000000000000000\n            /* \"#utility.yul\":883:884   */\n          0x00\n            /* \"#utility.yul\":875:881   */\n          dup3\n            /* \"#utility.yul\":871:885   */\n          add\n            /* \"#utility.yul\":864:908   */\n          mstore\n            /* \"#utility.yul\":747:915   */\n          pop\n          jump\t// out\n            /* \"#utility.yul\":921:1287   */\n        tag_41:\n            /* \"#utility.yul\":1063:1066   */\n          0x00\n            /* \"#utility.yul\":1084:1151   */\n          tag_74\n            /* \"#utility.yul\":1148:1150   */\n          0x12\n            /* \"#utility.yul\":1143:1146   */\n          dup4\n            /* \"#utility.yul\":1084:1151   */\n          tag_39\n          jump\t// in\n        tag_74:\n            /* \"#utility.yul\":1077:1151   */\n          swap2\n          pop\n            /* \"#utility.yul\":1160:1253   */\n          tag_75\n            /* \"#utility.yul\":1249:1252   */\n          dup3\n            /* \"#utility.yul\":1160:1253   */\n          tag_40\n          jump\t// in\n        tag_75:\n            /* \"#utility.yul\":1278:1280   */\n          0x20\n            /* \"#utility.yul\":1273:1276   */\n          dup3\n            /* \"#utility.yul\":1269:1281   */\n          add\n            /* \"#utility.yul\":1262:1281   */\n          swap1\n          pop\n            /* \"#utility.yul\":921:1287   */\n          swap2\n          swap1\n          pop\n          jump\t// out\n            /* \"#utility.yul\":1293:1932   */\n        tag_9:\n            /* \"#utility.yul\":1515:1519   */\n          0x00\n            /* \"#utility.yul\":1553:1555   */\n          0x60\n            /* \"#utility.yul\":1542:1551   */\n          dup3\n            /* \"#utility.yul\":1538:1556   */\n          add\n            /* \"#utility.yul\":1530:1556   */\n          swap1\n          pop\n            /* \"#utility.yul\":1566:1637   */\n          tag_77\n            /* \"#utility.yul\":1634:1635   */\n          0x00\n            /* \"#utility.yul\":1623:1632   */\n          dup4\n            /* \"#utility.yul\":1619:1636   */\n          add\n            /* \"#utility.yul\":1610:1616   */\n          dup6\n            /* \"#utility.yul\":1566:1637   */\n          tag_36\n          jump\t// in\n        tag_77:\n            /* \"#utility.yul\":1647:1719   */\n          tag_78\n            /* \"#utility.yul\":1715:1717   */\n          0x20\n            /* \"#utility.yul\":1704:1713   */\n          dup4\n            /* \"#utility.yul\":1700:1718   */\n          add\n            /* \"#utility.yul\":1691:1697   */\n          dup5\n            /* \"#utility.yul\":1647:1719   */\n          tag_38\n          jump\t// in\n        tag_78:\n            /* \"#utility.yul\":1766:1775   */\n          dup2\n            /* \"#utility.yul\":1760:1764   */\n          dup2\n            /* \"#utility.yul\":1756:1776   */\n          sub\n            /* \"#utility.yul\":1751:1753   */\n          0x40\n            /* \"#utility.yul\":1740:1749   */\n          dup4\n            /* \"#utility.yul\":1736:1754   */\n          add\n            /* \"#utility.yul\":1729:1777   */\n          mstore\n            /* \"#utility.yul\":1794:1925   */\n          tag_79\n            /* \"#utility.yul\":1920:1924   */\n          dup2\n            /* \"#utility.yul\":1794:1925   */\n          tag_41\n          jump\t// in\n        tag_79:\n            /* \"#utility.yul\":1786:1925   */\n          swap1\n          pop\n            /* \"#utility.yul\":1293:1932   */\n          swap4\n          swap3\n          pop\n          pop\n          pop\n          jump\t// out\n            /* \"#utility.yul\":1938:2112   */\n        tag_42:\n            /* \"#utility.yul\":2078:2104   */\n          0x66616c6c6261636b207761732063616c6c656431323331320000000000000000\n            /* \"#utility.yul\":2074:2075   */\n          0x00\n            /* \"#utility.yul\":2066:2072   */\n          dup3\n            /* \"#utility.yul\":2062:2076   */\n          add\n            /* \"#utility.yul\":2055:2105   */\n          mstore\n            /* \"#utility.yul\":1938:2112   */\n          pop\n          jump\t// out\n            /* \"#utility.yul\":2118:2484   */\n        tag_43:\n            /* \"#utility.yul\":2260:2263   */\n          0x00\n            /* \"#utility.yul\":2281:2348   */\n          tag_82\n            /* \"#utility.yul\":2345:2347   */\n          0x18\n            /* \"#utility.yul\":2340:2343   */\n          dup4\n            /* \"#utility.yul\":2281:2348   */\n          tag_39\n          jump\t// in\n        tag_82:\n            /* \"#utility.yul\":2274:2348   */\n          swap2\n          pop\n            /* \"#utility.yul\":2357:2450   */\n          tag_83\n            /* \"#utility.yul\":2446:2449   */\n          dup3\n            /* \"#utility.yul\":2357:2450   */\n          tag_42\n          jump\t// in\n        tag_83:\n            /* \"#utility.yul\":2475:2477   */\n          0x20\n            /* \"#utility.yul\":2470:2473   */\n          dup3\n            /* \"#utility.yul\":2466:2478   */\n          add\n            /* \"#utility.yul\":2459:2478   */\n          swap1\n          pop\n            /* \"#utility.yul\":2118:2484   */\n          swap2\n          swap1\n          pop\n          jump\t// out\n            /* \"#utility.yul\":2490:3129   */\n        tag_13:\n            /* \"#utility.yul\":2712:2716   */\n          0x00\n            /* \"#utility.yul\":2750:2752   */\n          0x60\n            /* \"#utility.yul\":2739:2748   */\n          dup3\n            /* \"#utility.yul\":2735:2753   */\n          add\n            /* \"#utility.yul\":2727:2753   */\n          swap1\n          pop\n            /* \"#utility.yul\":2763:2834   */\n          tag_85\n            /* \"#utility.yul\":2831:2832   */\n          0x00\n            /* \"#utility.yul\":2820:2829   */\n          dup4\n            /* \"#utility.yul\":2816:2833   */\n          add\n            /* \"#utility.yul\":2807:2813   */\n          dup6\n            /* \"#utility.yul\":2763:2834   */\n          tag_36\n          jump\t// in\n        tag_85:\n            /* \"#utility.yul\":2844:2916   */\n          tag_86\n            /* \"#utility.yul\":2912:2914   */\n          0x20\n            /* \"#utility.yul\":2901:2910   */\n          dup4\n            /* \"#utility.yul\":2897:2915   */\n          add\n            /* \"#utility.yul\":2888:2894   */\n          dup5\n            /* \"#utility.yul\":2844:2916   */\n          tag_38\n          jump\t// in\n        tag_86:\n            /* \"#utility.yul\":2963:2972   */\n          dup2\n            /* \"#utility.yul\":2957:2961   */\n          dup2\n            /* \"#utility.yul\":2953:2973   */\n          sub\n            /* \"#utility.yul\":2948:2950   */\n          0x40\n            /* \"#utility.yul\":2937:2946   */\n          dup4\n            /* \"#utility.yul\":2933:2951   */\n          add\n            /* \"#utility.yul\":2926:2974   */\n          mstore\n            /* \"#utility.yul\":2991:3122   */\n          tag_87\n            /* \"#utility.yul\":3117:3121   */\n          dup2\n            /* \"#utility.yul\":2991:3122   */\n          tag_43\n          jump\t// in\n        tag_87:\n            /* \"#utility.yul\":2983:3122   */\n          swap1\n          pop\n            /* \"#utility.yul\":2490:3129   */\n          swap4\n          swap3\n          pop\n          pop\n          pop\n          jump\t// out\n            /* \"#utility.yul\":3135:3357   */\n        tag_18:\n            /* \"#utility.yul\":3228:3232   */\n          0x00\n            /* \"#utility.yul\":3266:3268   */\n          0x20\n            /* \"#utility.yul\":3255:3264   */\n          dup3\n            /* \"#utility.yul\":3251:3269   */\n          add\n            /* \"#utility.yul\":3243:3269   */\n          swap1\n          pop\n            /* \"#utility.yul\":3279:3350   */\n          tag_89\n            /* \"#utility.yul\":3347:3348   */\n          0x00\n            /* \"#utility.yul\":3336:3345   */\n          dup4\n            /* \"#utility.yul\":3332:3349   */\n          add\n            /* \"#utility.yul\":3323:3329   */\n          dup5\n            /* \"#utility.yul\":3279:3350   */\n          tag_38\n          jump\t// in\n        tag_89:\n            /* \"#utility.yul\":3135:3357   */\n          swap3\n          swap2\n          pop\n          pop\n          jump\t// out\n            /* \"#utility.yul\":3363:3438   */\n        tag_44:\n            /* \"#utility.yul\":3396:3402   */\n          0x00\n            /* \"#utility.yul\":3429:3431   */\n          0x40\n            /* \"#utility.yul\":3423:3432   */\n          mload\n            /* \"#utility.yul\":3413:3432   */\n          swap1\n          pop\n            /* \"#utility.yul\":3363:3438   */\n          swap1\n          jump\t// out\n            /* \"#utility.yul\":3444:3561   */\n        tag_45:\n            /* \"#utility.yul\":3553:3554   */\n          0x00\n            /* \"#utility.yul\":3550:3551   */\n          dup1\n            /* \"#utility.yul\":3543:3555   */\n          revert\n            /* \"#utility.yul\":3567:3684   */\n        tag_46:\n            /* \"#utility.yul\":3676:3677   */\n          0x00\n            /* \"#utility.yul\":3673:3674   */\n          dup1\n            /* \"#utility.yul\":3666:3678   */\n          revert\n            /* \"#utility.yul\":3690:3807   */\n        tag_47:\n            /* \"#utility.yul\":3799:3800   */\n          0x00\n            /* \"#utility.yul\":3796:3797   */\n          dup1\n            /* \"#utility.yul\":3789:3801   */\n          revert\n            /* \"#utility.yul\":3813:3930   */\n        tag_48:\n            /* \"#utility.yul\":3922:3923   */\n          0x00\n            /* \"#utility.yul\":3919:3920   */\n          dup1\n            /* \"#utility.yul\":3912:3924   */\n          revert\n            /* \"#utility.yul\":3936:4038   */\n        tag_49:\n            /* \"#utility.yul\":3977:3983   */\n          0x00\n            /* \"#utility.yul\":4028:4030   */\n          0x1f\n            /* \"#utility.yul\":4024:4031   */\n          not\n            /* \"#utility.yul\":4019:4021   */\n          0x1f\n            /* \"#utility.yul\":4012:4017   */\n          dup4\n            /* \"#utility.yul\":4008:4022   */\n          add\n            /* \"#utility.yul\":4004:4032   */\n          and\n            /* \"#utility.yul\":3994:4032   */\n          swap1\n          pop\n            /* \"#utility.yul\":3936:4038   */\n          swap2\n          swap1\n          pop\n          jump\t// out\n            /* \"#utility.yul\":4044:4224   */\n        tag_50:\n            /* \"#utility.yul\":4092:4169   */\n          0x4e487b7100000000000000000000000000000000000000000000000000000000\n            /* \"#utility.yul\":4089:4090   */\n          0x00\n            /* \"#utility.yul\":4082:4170   */\n          mstore\n            /* \"#utility.yul\":4189:4193   */\n          0x41\n            /* \"#utility.yul\":4186:4187   */\n          0x04\n            /* \"#utility.yul\":4179:4194   */\n          mstore\n            /* \"#utility.yul\":4213:4217   */\n          0x24\n            /* \"#utility.yul\":4210:4211   */\n          0x00\n            /* \"#utility.yul\":4203:4218   */\n          revert\n            /* \"#utility.yul\":4230:4511   */\n        tag_51:\n            /* \"#utility.yul\":4313:4340   */\n          tag_98\n            /* \"#utility.yul\":4335:4339   */\n          dup3\n            /* \"#utility.yul\":4313:4340   */\n          tag_49\n          jump\t// in\n        tag_98:\n            /* \"#utility.yul\":4305:4311   */\n          dup2\n            /* \"#utility.yul\":4301:4341   */\n          add\n            /* \"#utility.yul\":4443:4449   */\n          dup2\n            /* \"#utility.yul\":4431:4441   */\n          dup2\n            /* \"#utility.yul\":4428:4450   */\n          lt\n            /* \"#utility.yul\":4407:4425   */\n          0xffffffffffffffff\n            /* \"#utility.yul\":4395:4405   */\n          dup3\n            /* \"#utility.yul\":4392:4426   */\n          gt\n            /* \"#utility.yul\":4389:4451   */\n          or\n            /* \"#utility.yul\":4386:4474   */\n          iszero\n          tag_99\n          jumpi\n            /* \"#utility.yul\":4454:4472   */\n          tag_100\n          tag_50\n          jump\t// in\n        tag_100:\n            /* \"#utility.yul\":4386:4474   */\n        tag_99:\n            /* \"#utility.yul\":4494:4504   */\n          dup1\n            /* \"#utility.yul\":4490:4492   */\n          0x40\n            /* \"#utility.yul\":4483:4505   */\n          mstore\n            /* \"#utility.yul\":4273:4511   */\n          pop\n            /* \"#utility.yul\":4230:4511   */\n          pop\n          pop\n          jump\t// out\n            /* \"#utility.yul\":4517:4646   */\n        tag_52:\n            /* \"#utility.yul\":4551:4557   */\n          0x00\n            /* \"#utility.yul\":4578:4598   */\n          tag_102\n          tag_44\n          jump\t// in\n        tag_102:\n            /* \"#utility.yul\":4568:4598   */\n          swap1\n          pop\n            /* \"#utility.yul\":4607:4640   */\n          tag_103\n            /* \"#utility.yul\":4635:4639   */\n          dup3\n            /* \"#utility.yul\":4627:4633   */\n          dup3\n            /* \"#utility.yul\":4607:4640   */\n          tag_51\n          jump\t// in\n        tag_103:\n            /* \"#utility.yul\":4517:4646   */\n          swap2\n          swap1\n          pop\n          jump\t// out\n            /* \"#utility.yul\":4652:4960   */\n        tag_53:\n            /* \"#utility.yul\":4714:4718   */\n          0x00\n            /* \"#utility.yul\":4804:4822   */\n          0xffffffffffffffff\n            /* \"#utility.yul\":4796:4802   */\n          dup3\n            /* \"#utility.yul\":4793:4823   */\n          gt\n            /* \"#utility.yul\":4790:4846   */\n          iszero\n          tag_105\n          jumpi\n            /* \"#utility.yul\":4826:4844   */\n          tag_106\n          tag_50\n          jump\t// in\n        tag_106:\n            /* \"#utility.yul\":4790:4846   */\n        tag_105:\n            /* \"#utility.yul\":4864:4893   */\n          tag_107\n            /* \"#utility.yul\":4886:4892   */\n          dup3\n            /* \"#utility.yul\":4864:4893   */\n          tag_49\n          jump\t// in\n        tag_107:\n            /* \"#utility.yul\":4856:4893   */\n          swap1\n          pop\n            /* \"#utility.yul\":4948:4952   */\n          0x20\n            /* \"#utility.yul\":4942:4946   */\n          dup2\n            /* \"#utility.yul\":4938:4953   */\n          add\n            /* \"#utility.yul\":4930:4953   */\n          swap1\n          pop\n            /* \"#utility.yul\":4652:4960   */\n          swap2\n          swap1\n          pop\n          jump\t// out\n            /* \"#utility.yul\":4966:5114   */\n        tag_54:\n            /* \"#utility.yul\":5064:5070   */\n          dup3\n            /* \"#utility.yul\":5059:5062   */\n          dup2\n            /* \"#utility.yul\":5054:5057   */\n          dup4\n            /* \"#utility.yul\":5041:5071   */\n          calldatacopy\n            /* \"#utility.yul\":5105:5106   */\n          0x00\n            /* \"#utility.yul\":5096:5102   */\n          dup4\n            /* \"#utility.yul\":5091:5094   */\n          dup4\n            /* \"#utility.yul\":5087:5103   */\n          add\n            /* \"#utility.yul\":5080:5107   */\n          mstore\n            /* \"#utility.yul\":4966:5114   */\n          pop\n          pop\n          pop\n          jump\t// out\n            /* \"#utility.yul\":5120:5545   */\n        tag_55:\n            /* \"#utility.yul\":5198:5203   */\n          0x00\n            /* \"#utility.yul\":5223:5289   */\n          tag_110\n            /* \"#utility.yul\":5239:5288   */\n          tag_111\n            /* \"#utility.yul\":5281:5287   */\n          dup5\n            /* \"#utility.yul\":5239:5288   */\n          tag_53\n          jump\t// in\n        tag_111:\n            /* \"#utility.yul\":5223:5289   */\n          tag_52\n          jump\t// in\n        tag_110:\n            /* \"#utility.yul\":5214:5289   */\n          swap1\n          pop\n            /* \"#utility.yul\":5312:5318   */\n          dup3\n            /* \"#utility.yul\":5305:5310   */\n          dup2\n            /* \"#utility.yul\":5298:5319   */\n          mstore\n            /* \"#utility.yul\":5350:5354   */\n          0x20\n            /* \"#utility.yul\":5343:5348   */\n          dup2\n            /* \"#utility.yul\":5339:5355   */\n          add\n            /* \"#utility.yul\":5388:5391   */\n          dup5\n            /* \"#utility.yul\":5379:5385   */\n          dup5\n            /* \"#utility.yul\":5374:5377   */\n          dup5\n            /* \"#utility.yul\":5370:5386   */\n          add\n            /* \"#utility.yul\":5367:5392   */\n          gt\n            /* \"#utility.yul\":5364:5476   */\n          iszero\n          tag_112\n          jumpi\n            /* \"#utility.yul\":5395:5474   */\n          tag_113\n          tag_48\n          jump\t// in\n        tag_113:\n            /* \"#utility.yul\":5364:5476   */\n        tag_112:\n            /* \"#utility.yul\":5485:5539   */\n          tag_114\n            /* \"#utility.yul\":5532:5538   */\n          dup5\n            /* \"#utility.yul\":5527:5530   */\n          dup3\n            /* \"#utility.yul\":5522:5525   */\n          dup6\n            /* \"#utility.yul\":5485:5539   */\n          tag_54\n          jump\t// in\n        tag_114:\n            /* \"#utility.yul\":5204:5545   */\n          pop\n            /* \"#utility.yul\":5120:5545   */\n          swap4\n          swap3\n          pop\n          pop\n          pop\n          jump\t// out\n            /* \"#utility.yul\":5565:5905   */\n        tag_56:\n            /* \"#utility.yul\":5621:5626   */\n          0x00\n            /* \"#utility.yul\":5670:5673   */\n          dup3\n            /* \"#utility.yul\":5663:5667   */\n          0x1f\n            /* \"#utility.yul\":5655:5661   */\n          dup4\n            /* \"#utility.yul\":5651:5668   */\n          add\n            /* \"#utility.yul\":5647:5674   */\n          slt\n            /* \"#utility.yul\":5637:5759   */\n          tag_116\n          jumpi\n            /* \"#utility.yul\":5678:5757   */\n          tag_117\n          tag_47\n          jump\t// in\n        tag_117:\n            /* \"#utility.yul\":5637:5759   */\n        tag_116:\n            /* \"#utility.yul\":5795:5801   */\n          dup2\n            /* \"#utility.yul\":5782:5802   */\n          calldataload\n            /* \"#utility.yul\":5820:5899   */\n          tag_118\n            /* \"#utility.yul\":5895:5898   */\n          dup5\n            /* \"#utility.yul\":5887:5893   */\n          dup3\n            /* \"#utility.yul\":5880:5884   */\n          0x20\n            /* \"#utility.yul\":5872:5878   */\n          dup7\n            /* \"#utility.yul\":5868:5885   */\n          add\n            /* \"#utility.yul\":5820:5899   */\n          tag_55\n          jump\t// in\n        tag_118:\n            /* \"#utility.yul\":5811:5899   */\n          swap2\n          pop\n            /* \"#utility.yul\":5627:5905   */\n          pop\n            /* \"#utility.yul\":5565:5905   */\n          swap3\n          swap2\n          pop\n          pop\n          jump\t// out\n            /* \"#utility.yul\":5911:6033   */\n        tag_57:\n            /* \"#utility.yul\":5984:6008   */\n          tag_120\n            /* \"#utility.yul\":6002:6007   */\n          dup2\n            /* \"#utility.yul\":5984:6008   */\n          tag_37\n          jump\t// in\n        tag_120:\n            /* \"#utility.yul\":5977:5982   */\n          dup2\n            /* \"#utility.yul\":5974:6009   */\n          eq\n            /* \"#utility.yul\":5964:6027   */\n          tag_121\n          jumpi\n            /* \"#utility.yul\":6023:6024   */\n          0x00\n            /* \"#utility.yul\":6020:6021   */\n          dup1\n            /* \"#utility.yul\":6013:6025   */\n          revert\n            /* \"#utility.yul\":5964:6027   */\n        tag_121:\n            /* \"#utility.yul\":5911:6033   */\n          pop\n          jump\t// out\n            /* \"#utility.yul\":6039:6178   */\n        tag_58:\n            /* \"#utility.yul\":6085:6090   */\n          0x00\n            /* \"#utility.yul\":6123:6129   */\n          dup2\n            /* \"#utility.yul\":6110:6130   */\n          calldataload\n            /* \"#utility.yul\":6101:6130   */\n          swap1\n          pop\n            /* \"#utility.yul\":6139:6172   */\n          tag_123\n            /* \"#utility.yul\":6166:6171   */\n          dup2\n            /* \"#utility.yul\":6139:6172   */\n          tag_57\n          jump\t// in\n        tag_123:\n            /* \"#utility.yul\":6039:6178   */\n          swap3\n          swap2\n          pop\n          pop\n          jump\t// out\n            /* \"#utility.yul\":6184:6838   */\n        tag_21:\n            /* \"#utility.yul\":6262:6268   */\n          0x00\n            /* \"#utility.yul\":6270:6276   */\n          dup1\n            /* \"#utility.yul\":6319:6321   */\n          0x40\n            /* \"#utility.yul\":6307:6316   */\n          dup4\n            /* \"#utility.yul\":6298:6305   */\n          dup6\n            /* \"#utility.yul\":6294:6317   */\n          sub\n            /* \"#utility.yul\":6290:6322   */\n          slt\n            /* \"#utility.yul\":6287:6406   */\n          iszero\n          tag_125\n          jumpi\n            /* \"#utility.yul\":6325:6404   */\n          tag_126\n          tag_45\n          jump\t// in\n        tag_126:\n            /* \"#utility.yul\":6287:6406   */\n        tag_125:\n            /* \"#utility.yul\":6473:6474   */\n          0x00\n            /* \"#utility.yul\":6462:6471   */\n          dup4\n            /* \"#utility.yul\":6458:6475   */\n          add\n            /* \"#utility.yul\":6445:6476   */\n          calldataload\n            /* \"#utility.yul\":6503:6521   */\n          0xffffffffffffffff\n            /* \"#utility.yul\":6495:6501   */\n          dup2\n            /* \"#utility.yul\":6492:6522   */\n          gt\n            /* \"#utility.yul\":6489:6606   */\n          iszero\n          tag_127\n          jumpi\n            /* \"#utility.yul\":6525:6604   */\n          tag_128\n          tag_46\n          jump\t// in\n        tag_128:\n            /* \"#utility.yul\":6489:6606   */\n        tag_127:\n            /* \"#utility.yul\":6630:6693   */\n          tag_129\n            /* \"#utility.yul\":6685:6692   */\n          dup6\n            /* \"#utility.yul\":6676:6682   */\n          dup3\n            /* \"#utility.yul\":6665:6674   */\n          dup7\n            /* \"#utility.yul\":6661:6683   */\n          add\n            /* \"#utility.yul\":6630:6693   */\n          tag_56\n          jump\t// in\n        tag_129:\n            /* \"#utility.yul\":6620:6693   */\n          swap3\n          pop\n            /* \"#utility.yul\":6416:6703   */\n          pop\n            /* \"#utility.yul\":6742:6744   */\n          0x20\n            /* \"#utility.yul\":6768:6821   */\n          tag_130\n            /* \"#utility.yul\":6813:6820   */\n          dup6\n            /* \"#utility.yul\":6804:6810   */\n          dup3\n            /* \"#utility.yul\":6793:6802   */\n          dup7\n            /* \"#utility.yul\":6789:6811   */\n          add\n            /* \"#utility.yul\":6768:6821   */\n          tag_58\n          jump\t// in\n        tag_130:\n            /* \"#utility.yul\":6758:6821   */\n          swap2\n          pop\n            /* \"#utility.yul\":6713:6831   */\n          pop\n            /* \"#utility.yul\":6184:6838   */\n          swap3\n          pop\n          swap3\n          swap1\n          pop\n          jump\t// out\n            /* \"#utility.yul\":6844:7066   */\n        tag_28:\n            /* \"#utility.yul\":6937:6941   */\n          0x00\n            /* \"#utility.yul\":6975:6977   */\n          0x20\n            /* \"#utility.yul\":6964:6973   */\n          dup3\n            /* \"#utility.yul\":6960:6978   */\n          add\n            /* \"#utility.yul\":6952:6978   */\n          swap1\n          pop\n            /* \"#utility.yul\":6988:7059   */\n          tag_132\n            /* \"#utility.yul\":7056:7057   */\n          0x00\n            /* \"#utility.yul\":7045:7054   */\n          dup4\n            /* \"#utility.yul\":7041:7058   */\n          add\n            /* \"#utility.yul\":7032:7038   */\n          dup5\n            /* \"#utility.yul\":6988:7059   */\n          tag_36\n          jump\t// in\n        tag_132:\n            /* \"#utility.yul\":6844:7066   */\n          swap3\n          swap2\n          pop\n          pop\n          jump\t// out\n            /* \"#utility.yul\":7072:7171   */\n        tag_59:\n            /* \"#utility.yul\":7124:7130   */\n          0x00\n            /* \"#utility.yul\":7158:7163   */\n          dup2\n            /* \"#utility.yul\":7152:7164   */\n          mload\n            /* \"#utility.yul\":7142:7164   */\n          swap1\n          pop\n            /* \"#utility.yul\":7072:7171   */\n          swap2\n          swap1\n          pop\n          jump\t// out\n            /* \"#utility.yul\":7177:7316   */\n        tag_60:\n            /* \"#utility.yul\":7266:7272   */\n          dup3\n            /* \"#utility.yul\":7261:7264   */\n          dup2\n            /* \"#utility.yul\":7256:7259   */\n          dup4\n            /* \"#utility.yul\":7250:7273   */\n          mcopy\n            /* \"#utility.yul\":7307:7308   */\n          0x00\n            /* \"#utility.yul\":7298:7304   */\n          dup4\n            /* \"#utility.yul\":7293:7296   */\n          dup4\n            /* \"#utility.yul\":7289:7305   */\n          add\n            /* \"#utility.yul\":7282:7309   */\n          mstore\n            /* \"#utility.yul\":7177:7316   */\n          pop\n          pop\n          pop\n          jump\t// out\n            /* \"#utility.yul\":7322:7699   */\n        tag_61:\n            /* \"#utility.yul\":7410:7413   */\n          0x00\n            /* \"#utility.yul\":7438:7477   */\n          tag_136\n            /* \"#utility.yul\":7471:7476   */\n          dup3\n            /* \"#utility.yul\":7438:7477   */\n          tag_59\n          jump\t// in\n        tag_136:\n            /* \"#utility.yul\":7493:7564   */\n          tag_137\n            /* \"#utility.yul\":7557:7563   */\n          dup2\n            /* \"#utility.yul\":7552:7555   */\n          dup6\n            /* \"#utility.yul\":7493:7564   */\n          tag_39\n          jump\t// in\n        tag_137:\n            /* \"#utility.yul\":7486:7564   */\n          swap4\n          pop\n            /* \"#utility.yul\":7573:7638   */\n          tag_138\n            /* \"#utility.yul\":7631:7637   */\n          dup2\n            /* \"#utility.yul\":7626:7629   */\n          dup6\n            /* \"#utility.yul\":7619:7623   */\n          0x20\n            /* \"#utility.yul\":7612:7617   */\n          dup7\n            /* \"#utility.yul\":7608:7624   */\n          add\n            /* \"#utility.yul\":7573:7638   */\n          tag_60\n          jump\t// in\n        tag_138:\n            /* \"#utility.yul\":7663:7692   */\n          tag_139\n            /* \"#utility.yul\":7685:7691   */\n          dup2\n            /* \"#utility.yul\":7663:7692   */\n          tag_49\n          jump\t// in\n        tag_139:\n            /* \"#utility.yul\":7658:7661   */\n          dup5\n            /* \"#utility.yul\":7654:7693   */\n          add\n            /* \"#utility.yul\":7647:7693   */\n          swap2\n          pop\n            /* \"#utility.yul\":7414:7699   */\n          pop\n            /* \"#utility.yul\":7322:7699   */\n          swap3\n          swap2\n          pop\n          pop\n          jump\t// out\n            /* \"#utility.yul\":7705:8238   */\n        tag_32:\n            /* \"#utility.yul\":7874:7878   */\n          0x00\n            /* \"#utility.yul\":7912:7914   */\n          0x60\n            /* \"#utility.yul\":7901:7910   */\n          dup3\n            /* \"#utility.yul\":7897:7915   */\n          add\n            /* \"#utility.yul\":7889:7915   */\n          swap1\n          pop\n            /* \"#utility.yul\":7925:7996   */\n          tag_141\n            /* \"#utility.yul\":7993:7994   */\n          0x00\n            /* \"#utility.yul\":7982:7991   */\n          dup4\n            /* \"#utility.yul\":7978:7995   */\n          add\n            /* \"#utility.yul\":7969:7975   */\n          dup7\n            /* \"#utility.yul\":7925:7996   */\n          tag_36\n          jump\t// in\n        tag_141:\n            /* \"#utility.yul\":8006:8078   */\n          tag_142\n            /* \"#utility.yul\":8074:8076   */\n          0x20\n            /* \"#utility.yul\":8063:8072   */\n          dup4\n            /* \"#utility.yul\":8059:8077   */\n          add\n            /* \"#utility.yul\":8050:8056   */\n          dup6\n            /* \"#utility.yul\":8006:8078   */\n          tag_38\n          jump\t// in\n        tag_142:\n            /* \"#utility.yul\":8125:8134   */\n          dup2\n            /* \"#utility.yul\":8119:8123   */\n          dup2\n            /* \"#utility.yul\":8115:8135   */\n          sub\n            /* \"#utility.yul\":8110:8112   */\n          0x40\n            /* \"#utility.yul\":8099:8108   */\n          dup4\n            /* \"#utility.yul\":8095:8113   */\n          add\n            /* \"#utility.yul\":8088:8136   */\n          mstore\n            /* \"#utility.yul\":8153:8231   */\n          tag_143\n            /* \"#utility.yul\":8226:8230   */\n          dup2\n            /* \"#utility.yul\":8217:8223   */\n          dup5\n            /* \"#utility.yul\":8153:8231   */\n          tag_61\n          jump\t// in\n        tag_143:\n            /* \"#utility.yul\":8145:8231   */\n          swap1\n          pop\n            /* \"#utility.yul\":7705:8238   */\n          swap5\n          swap4\n          pop\n          pop\n          pop\n          pop\n          jump\t// out\n\n        auxdata: 0xa2646970667358221220ef8b09f6ad8aa511344466513aed44db0c82e557c4b3950979c51f1ac374756464736f6c634300081a0033\n    }\n}\n",
				"bytecode": {
					"linkReferences": {},
					"object": "6080604052348015600e575f80fd5b506040516019906074565b604051809103905ff0801580156031573d5f803e3d5ffd5b505f806101000a81548173ffffffffffffffffffffffffffffffffffffffff021916908373ffffffffffffffffffffffffffffffffffffffff1602179055506081565b6105d98061071b83390190565b61068d8061008e5f395ff3fe608060405260043610610033575f3560e01c806312065fe01461003757806338cc48311461006157806359c75ada1461008b575b5f80fd5b348015610042575f80fd5b5061004b6100a7565b604051610058919061031d565b60405180910390f35b34801561006c575f80fd5b5061007561013a565b6040516100829190610375565b60405180910390f35b6100a560048036038101906100a091906103f7565b6101cd565b005b5f805f9054906101000a900473ffffffffffffffffffffffffffffffffffffffff1673ffffffffffffffffffffffffffffffffffffffff166312065fe06040518163ffffffff1660e01b8152600401602060405180830381865afa158015610111573d5f803e3d5ffd5b505050506040513d601f19601f820116820180604052508101906101359190610449565b905090565b5f805f9054906101000a900473ffffffffffffffffffffffffffffffffffffffff1673ffffffffffffffffffffffffffffffffffffffff166338cc48316040518163ffffffff1660e01b8152600401602060405180830381865afa1580156101a4573d5f803e3d5ffd5b505050506040513d601f19601f820116820180604052508101906101c8919061049e565b905090565b5f808373ffffffffffffffffffffffffffffffffffffffff1634846040516024016101f89190610523565b6040516020818303038152906040527f24ccab8f000000000000000000000000000000000000000000000000000000007bffffffffffffffffffffffffffffffffffffffffffffffffffffffff19166020820180517bffffffffffffffffffffffffffffffffffffffffffffffffffffffff838183161783525050505060405161028291906105a1565b5f6040518083038185875af1925050503d805f81146102bc576040519150601f19603f3d011682016040523d82523d5f602084013e6102c1565b606091505b50915091507f13848c3e38f8886f3f5d2ad9dff80d8092c2bbb8efd5b887a99c2c6cfc09ac2a82826040516102f7929190610629565b60405180910390a150505050565b5f819050919050565b61031781610305565b82525050565b5f6020820190506103305f83018461030e565b92915050565b5f73ffffffffffffffffffffffffffffffffffffffff82169050919050565b5f61035f82610336565b9050919050565b61036f81610355565b82525050565b5f6020820190506103885f830184610366565b92915050565b5f80fd5b5f61039c82610336565b9050919050565b6103ac81610392565b81146103b6575f80fd5b50565b5f813590506103c7816103a3565b92915050565b6103d681610305565b81146103e0575f80fd5b50565b5f813590506103f1816103cd565b92915050565b5f806040838503121561040d5761040c61038e565b5b5f61041a858286016103b9565b925050602061042b858286016103e3565b9150509250929050565b5f81519050610443816103cd565b92915050565b5f6020828403121561045e5761045d61038e565b5b5f61046b84828501610435565b91505092915050565b61047d81610355565b8114610487575f80fd5b50565b5f8151905061049881610474565b92915050565b5f602082840312156104b3576104b261038e565b5b5f6104c08482850161048a565b91505092915050565b5f82825260208201905092915050565b7f63616c6c20666f6f0000000000000000000000000000000000000000000000005f82015250565b5f61050d6008836104c9565b9150610518826104d9565b602082019050919050565b5f6040820190508181035f83015261053a81610501565b9050610549602083018461030e565b92915050565b5f81519050919050565b5f81905092915050565b8281835e5f83830152505050565b5f61057b8261054f565b6105858185610559565b9350610595818560208601610563565b80840191505092915050565b5f6105ac8284610571565b915081905092915050565b5f8115159050919050565b6105cb816105b7565b82525050565b5f82825260208201905092915050565b5f601f19601f8301169050919050565b5f6105fb8261054f565b61060581856105d1565b9350610615818560208601610563565b61061e816105e1565b840191505092915050565b5f60408201905061063c5f8301856105c2565b818103602083015261064e81846105f1565b9050939250505056fea2646970667358221220aa6d51c9174202abfe48bde08d4500181206e9d3305ccc418c907006c9f71a3e64736f6c634300081a00336080604052348015600e575f80fd5b506105bd8061001c5f395ff3fe608060405260043610610037575f3560e01c806312065fe0146100b257806324ccab8f146100dc57806338cc48311461010c57610077565b36610077577f59e04c3f0d44b7caf6e8ef854b61d9a51cf1960d7a88ff6356cc5e946b4b5832333460405161006d92919061023a565b60405180910390a1005b7f59e04c3f0d44b7caf6e8ef854b61d9a51cf1960d7a88ff6356cc5e946b4b583233346040516100a89291906102be565b60405180910390a1005b3480156100bd575f80fd5b506100c6610136565b6040516100d391906102f8565b60405180910390f35b6100f660048036038101906100f19190610488565b61013d565b60405161010391906102f8565b60405180910390f35b348015610117575f80fd5b50610120610182565b60405161012d91906104e2565b60405180910390f35b5f47905090565b5f7f59e04c3f0d44b7caf6e8ef854b61d9a51cf1960d7a88ff6356cc5e946b4b58323334856040516101719392919061054b565b60405180910390a181905092915050565b5f30905090565b5f73ffffffffffffffffffffffffffffffffffffffff82169050919050565b5f6101b282610189565b9050919050565b6101c2816101a8565b82525050565b5f819050919050565b6101da816101c8565b82525050565b5f82825260208201905092915050565b7f72656365697665207761732063616c6c656400000000000000000000000000005f82015250565b5f6102246012836101e0565b915061022f826101f0565b602082019050919050565b5f60608201905061024d5f8301856101b9565b61025a60208301846101d1565b818103604083015261026b81610218565b90509392505050565b7f66616c6c6261636b207761732063616c6c6564313233313200000000000000005f82015250565b5f6102a86018836101e0565b91506102b382610274565b602082019050919050565b5f6060820190506102d15f8301856101b9565b6102de60208301846101d1565b81810360408301526102ef8161029c565b90509392505050565b5f60208201905061030b5f8301846101d1565b92915050565b5f604051905090565b5f80fd5b5f80fd5b5f80fd5b5f80fd5b5f601f19601f8301169050919050565b7f4e487b71000000000000000000000000000000000000000000000000000000005f52604160045260245ffd5b6103708261032a565b810181811067ffffffffffffffff8211171561038f5761038e61033a565b5b80604052505050565b5f6103a1610311565b90506103ad8282610367565b919050565b5f67ffffffffffffffff8211156103cc576103cb61033a565b5b6103d58261032a565b9050602081019050919050565b828183375f83830152505050565b5f6104026103fd846103b2565b610398565b90508281526020810184848401111561041e5761041d610326565b5b6104298482856103e2565b509392505050565b5f82601f83011261044557610444610322565b5b81356104558482602086016103f0565b91505092915050565b610467816101c8565b8114610471575f80fd5b50565b5f813590506104828161045e565b92915050565b5f806040838503121561049e5761049d61031a565b5b5f83013567ffffffffffffffff8111156104bb576104ba61031e565b5b6104c785828601610431565b92505060206104d885828601610474565b9150509250929050565b5f6020820190506104f55f8301846101b9565b92915050565b5f81519050919050565b8281835e5f83830152505050565b5f61051d826104fb565b61052781856101e0565b9350610537818560208601610505565b6105408161032a565b840191505092915050565b5f60608201905061055e5f8301866101b9565b61056b60208301856101d1565b818103604083015261057d8184610513565b905094935050505056fea2646970667358221220ef8b09f6ad8aa511344466513aed44db0c82e557c4b3950979c51f1ac374756464736f6c634300081a0033",
					"opcodes": "PUSH1 0x80 PUSH1 0x40 MSTORE CALLVALUE DUP1 ISZERO PUSH1 0xE JUMPI PUSH0 DUP1 REVERT JUMPDEST POP PUSH1 0x40 MLOAD PUSH1 0x19 SWAP1 PUSH1 0x74 JUMP JUMPDEST PUSH1 0x40 MLOAD DUP1 SWAP2 SUB SWAP1 PUSH0 CREATE DUP1 ISZERO DUP1 ISZERO PUSH1 0x31 JUMPI RETURNDATASIZE PUSH0 DUP1 RETURNDATACOPY RETURNDATASIZE PUSH0 REVERT JUMPDEST POP PUSH0 DUP1 PUSH2 0x100 EXP DUP2 SLOAD DUP2 PUSH20 0xFFFFFFFFFFFFFFFFFFFFFFFFFFFFFFFFFFFFFFFF MUL NOT AND SWAP1 DUP4 PUSH20 0xFFFFFFFFFFFFFFFFFFFFFFFFFFFFFFFFFFFFFFFF AND MUL OR SWAP1 SSTORE POP PUSH1 0x81 JUMP JUMPDEST PUSH2 0x5D9 DUP1 PUSH2 0x71B DUP4 CODECOPY ADD SWAP1 JUMP JUMPDEST PUSH2 0x68D DUP1 PUSH2 0x8E PUSH0 CODECOPY PUSH0 RETURN INVALID PUSH1 0x80 PUSH1 0x40 MSTORE PUSH1 0x4 CALLDATASIZE LT PUSH2 0x33 JUMPI PUSH0 CALLDATALOAD PUSH1 0xE0 SHR DUP1 PUSH4 0x12065FE0 EQ PUSH2 0x37 JUMPI DUP1 PUSH4 0x38CC4831 EQ PUSH2 0x61 JUMPI DUP1 PUSH4 0x59C75ADA EQ PUSH2 0x8B JUMPI JUMPDEST PUSH0 DUP1 REVERT JUMPDEST CALLVALUE DUP1 ISZERO PUSH2 0x42 JUMPI PUSH0 DUP1 REVERT JUMPDEST POP PUSH2 0x4B PUSH2 0xA7 JUMP JUMPDEST PUSH1 0x40 MLOAD PUSH2 0x58 SWAP2 SWAP1 PUSH2 0x31D JUMP JUMPDEST PUSH1 0x40 MLOAD DUP1 SWAP2 SUB SWAP1 RETURN JUMPDEST CALLVALUE DUP1 ISZERO PUSH2 0x6C JUMPI PUSH0 DUP1 REVERT JUMPDEST POP PUSH2 0x75 PUSH2 0x13A JUMP JUMPDEST PUSH1 0x40 MLOAD PUSH2 0x82 SWAP2 SWAP1 PUSH2 0x375 JUMP JUMPDEST PUSH1 0x40 MLOAD DUP1 SWAP2 SUB SWAP1 RETURN JUMPDEST PUSH2 0xA5 PUSH1 0x4 DUP1 CALLDATASIZE SUB DUP2 ADD SWAP1 PUSH2 0xA0 SWAP2 SWAP1 PUSH2 0x3F7 JUMP JUMPDEST PUSH2 0x1CD JUMP JUMPDEST STOP JUMPDEST PUSH0 DUP1 PUSH0 SWAP1 SLOAD SWAP1 PUSH2 0x100 EXP SWAP1 DIV PUSH20 0xFFFFFFFFFFFFFFFFFFFFFFFFFFFFFFFFFFFFFFFF AND PUSH20 0xFFFFFFFFFFFFFFFFFFFFFFFFFFFFFFFFFFFFFFFF AND PUSH4 0x12065FE0 PUSH1 0x40 MLOAD DUP2 PUSH4 0xFFFFFFFF AND PUSH1 0xE0 SHL DUP2 MSTORE PUSH1 0x4 ADD PUSH1 0x20 PUSH1 0x40 MLOAD DUP1 DUP4 SUB DUP2 DUP7 GAS STATICCALL ISZERO DUP1 ISZERO PUSH2 0x111 JUMPI RETURNDATASIZE PUSH0 DUP1 RETURNDATACOPY RETURNDATASIZE PUSH0 REVERT JUMPDEST POP POP POP POP PUSH1 0x40 MLOAD RETURNDATASIZE PUSH1 0x1F NOT PUSH1 0x1F DUP3 ADD AND DUP3 ADD DUP1 PUSH1 0x40 MSTORE POP DUP2 ADD SWAP1 PUSH2 0x135 SWAP2 SWAP1 PUSH2 0x449 JUMP JUMPDEST SWAP1 POP SWAP1 JUMP JUMPDEST PUSH0 DUP1 PUSH0 SWAP1 SLOAD SWAP1 PUSH2 0x100 EXP SWAP1 DIV PUSH20 0xFFFFFFFFFFFFFFFFFFFFFFFFFFFFFFFFFFFFFFFF AND PUSH20 0xFFFFFFFFFFFFFFFFFFFFFFFFFFFFFFFFFFFFFFFF AND PUSH4 0x38CC4831 PUSH1 0x40 MLOAD DUP2 PUSH4 0xFFFFFFFF AND PUSH1 0xE0 SHL DUP2 MSTORE PUSH1 0x4 ADD PUSH1 0x20 PUSH1 0x40 MLOAD DUP1 DUP4 SUB DUP2 DUP7 GAS STATICCALL ISZERO DUP1 ISZERO PUSH2 0x1A4 JUMPI RETURNDATASIZE PUSH0 DUP1 RETURNDATACOPY RETURNDATASIZE PUSH0 REVERT JUMPDEST POP POP POP POP PUSH1 0x40 MLOAD RETURNDATASIZE PUSH1 0x1F NOT PUSH1 0x1F DUP3 ADD AND DUP3 ADD DUP1 PUSH1 0x40 MSTORE POP DUP2 ADD SWAP1 PUSH2 0x1C8 SWAP2 SWAP1 PUSH2 0x49E JUMP JUMPDEST SWAP1 POP SWAP1 JUMP JUMPDEST PUSH0 DUP1 DUP4 PUSH20 0xFFFFFFFFFFFFFFFFFFFFFFFFFFFFFFFFFFFFFFFF AND CALLVALUE DUP5 PUSH1 0x40 MLOAD PUSH1 0x24 ADD PUSH2 0x1F8 SWAP2 SWAP1 PUSH2 0x523 JUMP JUMPDEST PUSH1 0x40 MLOAD PUSH1 0x20 DUP2 DUP4 SUB SUB DUP2 MSTORE SWAP1 PUSH1 0x40 MSTORE PUSH32 0x24CCAB8F00000000000000000000000000000000000000000000000000000000 PUSH28 0xFFFFFFFFFFFFFFFFFFFFFFFFFFFFFFFFFFFFFFFFFFFFFFFFFFFFFFFF NOT AND PUSH1 0x20 DUP3 ADD DUP1 MLOAD PUSH28 0xFFFFFFFFFFFFFFFFFFFFFFFFFFFFFFFFFFFFFFFFFFFFFFFFFFFFFFFF DUP4 DUP2 DUP4 AND OR DUP4 MSTORE POP POP POP POP PUSH1 0x40 MLOAD PUSH2 0x282 SWAP2 SWAP1 PUSH2 0x5A1 JUMP JUMPDEST PUSH0 PUSH1 0x40 MLOAD DUP1 DUP4 SUB DUP2 DUP6 DUP8 GAS CALL SWAP3 POP POP POP RETURNDATASIZE DUP1 PUSH0 DUP2 EQ PUSH2 0x2BC JUMPI PUSH1 0x40 MLOAD SWAP2 POP PUSH1 0x1F NOT PUSH1 0x3F RETURNDATASIZE ADD AND DUP3 ADD PUSH1 0x40 MSTORE RETURNDATASIZE DUP3 MSTORE RETURNDATASIZE PUSH0 PUSH1 0x20 DUP5 ADD RETURNDATACOPY PUSH2 0x2C1 JUMP JUMPDEST PUSH1 0x60 SWAP2 POP JUMPDEST POP SWAP2 POP SWAP2 POP PUSH32 0x13848C3E38F8886F3F5D2AD9DFF80D8092C2BBB8EFD5B887A99C2C6CFC09AC2A DUP3 DUP3 PUSH1 0x40 MLOAD PUSH2 0x2F7 SWAP3 SWAP2 SWAP1 PUSH2 0x629 JUMP JUMPDEST PUSH1 0x40 MLOAD DUP1 SWAP2 SUB SWAP1 LOG1 POP POP POP POP JUMP JUMPDEST PUSH0 DUP2 SWAP1 POP SWAP2 SWAP1 POP JUMP JUMPDEST PUSH2 0x317 DUP2 PUSH2 0x305 JUMP JUMPDEST DUP3 MSTORE POP POP JUMP JUMPDEST PUSH0 PUSH1 0x20 DUP3 ADD SWAP1 POP PUSH2 0x330 PUSH0 DUP4 ADD DUP5 PUSH2 0x30E JUMP JUMPDEST SWAP3 SWAP2 POP POP JUMP JUMPDEST PUSH0 PUSH20 0xFFFFFFFFFFFFFFFFFFFFFFFFFFFFFFFFFFFFFFFF DUP3 AND SWAP1 POP SWAP2 SWAP1 POP JUMP JUMPDEST PUSH0 PUSH2 0x35F DUP3 PUSH2 0x336 JUMP JUMPDEST SWAP1 POP SWAP2 SWAP1 POP JUMP JUMPDEST PUSH2 0x36F DUP2 PUSH2 0x355 JUMP JUMPDEST DUP3 MSTORE POP POP JUMP JUMPDEST PUSH0 PUSH1 0x20 DUP3 ADD SWAP1 POP PUSH2 0x388 PUSH0 DUP4 ADD DUP5 PUSH2 0x366 JUMP JUMPDEST SWAP3 SWAP2 POP POP JUMP JUMPDEST PUSH0 DUP1 REVERT JUMPDEST PUSH0 PUSH2 0x39C DUP3 PUSH2 0x336 JUMP JUMPDEST SWAP1 POP SWAP2 SWAP1 POP JUMP JUMPDEST PUSH2 0x3AC DUP2 PUSH2 0x392 JUMP JUMPDEST DUP2 EQ PUSH2 0x3B6 JUMPI PUSH0 DUP1 REVERT JUMPDEST POP JUMP JUMPDEST PUSH0 DUP2 CALLDATALOAD SWAP1 POP PUSH2 0x3C7 DUP2 PUSH2 0x3A3 JUMP JUMPDEST SWAP3 SWAP2 POP POP JUMP JUMPDEST PUSH2 0x3D6 DUP2 PUSH2 0x305 JUMP JUMPDEST DUP2 EQ PUSH2 0x3E0 JUMPI PUSH0 DUP1 REVERT JUMPDEST POP JUMP JUMPDEST PUSH0 DUP2 CALLDATALOAD SWAP1 POP PUSH2 0x3F1 DUP2 PUSH2 0x3CD JUMP JUMPDEST SWAP3 SWAP2 POP POP JUMP JUMPDEST PUSH0 DUP1 PUSH1 0x40 DUP4 DUP6 SUB SLT ISZERO PUSH2 0x40D JUMPI PUSH2 0x40C PUSH2 0x38E JUMP JUMPDEST JUMPDEST PUSH0 PUSH2 0x41A DUP6 DUP3 DUP7 ADD PUSH2 0x3B9 JUMP JUMPDEST SWAP3 POP POP PUSH1 0x20 PUSH2 0x42B DUP6 DUP3 DUP7 ADD PUSH2 0x3E3 JUMP JUMPDEST SWAP2 POP POP SWAP3 POP SWAP3 SWAP1 POP JUMP JUMPDEST PUSH0 DUP2 MLOAD SWAP1 POP PUSH2 0x443 DUP2 PUSH2 0x3CD JUMP JUMPDEST SWAP3 SWAP2 POP POP JUMP JUMPDEST PUSH0 PUSH1 0x20 DUP3 DUP5 SUB SLT ISZERO PUSH2 0x45E JUMPI PUSH2 0x45D PUSH2 0x38E JUMP JUMPDEST JUMPDEST PUSH0 PUSH2 0x46B DUP5 DUP3 DUP6 ADD PUSH2 0x435 JUMP JUMPDEST SWAP2 POP POP SWAP3 SWAP2 POP POP JUMP JUMPDEST PUSH2 0x47D DUP2 PUSH2 0x355 JUMP JUMPDEST DUP2 EQ PUSH2 0x487 JUMPI PUSH0 DUP1 REVERT JUMPDEST POP JUMP JUMPDEST PUSH0 DUP2 MLOAD SWAP1 POP PUSH2 0x498 DUP2 PUSH2 0x474 JUMP JUMPDEST SWAP3 SWAP2 POP POP JUMP JUMPDEST PUSH0 PUSH1 0x20 DUP3 DUP5 SUB SLT ISZERO PUSH2 0x4B3 JUMPI PUSH2 0x4B2 PUSH2 0x38E JUMP JUMPDEST JUMPDEST PUSH0 PUSH2 0x4C0 DUP5 DUP3 DUP6 ADD PUSH2 0x48A JUMP JUMPDEST SWAP2 POP POP SWAP3 SWAP2 POP POP JUMP JUMPDEST PUSH0 DUP3 DUP3 MSTORE PUSH1 0x20 DUP3 ADD SWAP1 POP SWAP3 SWAP2 POP POP JUMP JUMPDEST PUSH32 0x63616C6C20666F6F000000000000000000000000000000000000000000000000 PUSH0 DUP3 ADD MSTORE POP JUMP JUMPDEST PUSH0 PUSH2 0x50D PUSH1 0x8 DUP4 PUSH2 0x4C9 JUMP JUMPDEST SWAP2 POP PUSH2 0x518 DUP3 PUSH2 0x4D9 JUMP JUMPDEST PUSH1 0x20 DUP3 ADD SWAP1 POP SWAP2 SWAP1 POP JUMP JUMPDEST PUSH0 PUSH1 0x40 DUP3 ADD SWAP1 POP DUP2 DUP2 SUB PUSH0 DUP4 ADD MSTORE PUSH2 0x53A DUP2 PUSH2 0x501 JUMP JUMPDEST SWAP1 POP PUSH2 0x549 PUSH1 0x20 DUP4 ADD DUP5 PUSH2 0x30E JUMP JUMPDEST SWAP3 SWAP2 POP POP JUMP JUMPDEST PUSH0 DUP2 MLOAD SWAP1 POP SWAP2 SWAP1 POP JUMP JUMPDEST PUSH0 DUP2 SWAP1 POP SWAP3 SWAP2 POP POP JUMP JUMPDEST DUP3 DUP2 DUP4 MCOPY PUSH0 DUP4 DUP4 ADD MSTORE POP POP POP JUMP JUMPDEST PUSH0 PUSH2 0x57B DUP3 PUSH2 0x54F JUMP JUMPDEST PUSH2 0x585 DUP2 DUP6 PUSH2 0x559 JUMP JUMPDEST SWAP4 POP PUSH2 0x595 DUP2 DUP6 PUSH1 0x20 DUP7 ADD PUSH2 0x563 JUMP JUMPDEST DUP1 DUP5 ADD SWAP2 POP POP SWAP3 SWAP2 POP POP JUMP JUMPDEST PUSH0 PUSH2 0x5AC DUP3 DUP5 PUSH2 0x571 JUMP JUMPDEST SWAP2 POP DUP2 SWAP1 POP SWAP3 SWAP2 POP POP JUMP JUMPDEST PUSH0 DUP2 ISZERO ISZERO SWAP1 POP SWAP2 SWAP1 POP JUMP JUMPDEST PUSH2 0x5CB DUP2 PUSH2 0x5B7 JUMP JUMPDEST DUP3 MSTORE POP POP JUMP JUMPDEST PUSH0 DUP3 DUP3 MSTORE PUSH1 0x20 DUP3 ADD SWAP1 POP SWAP3 SWAP2 POP POP JUMP JUMPDEST PUSH0 PUSH1 0x1F NOT PUSH1 0x1F DUP4 ADD AND SWAP1 POP SWAP2 SWAP1 POP JUMP JUMPDEST PUSH0 PUSH2 0x5FB DUP3 PUSH2 0x54F JUMP JUMPDEST PUSH2 0x605 DUP2 DUP6 PUSH2 0x5D1 JUMP JUMPDEST SWAP4 POP PUSH2 0x615 DUP2 DUP6 PUSH1 0x20 DUP7 ADD PUSH2 0x563 JUMP JUMPDEST PUSH2 0x61E DUP2 PUSH2 0x5E1 JUMP JUMPDEST DUP5 ADD SWAP2 POP POP SWAP3 SWAP2 POP POP JUMP JUMPDEST PUSH0 PUSH1 0x40 DUP3 ADD SWAP1 POP PUSH2 0x63C PUSH0 DUP4 ADD DUP6 PUSH2 0x5C2 JUMP JUMPDEST DUP2 DUP2 SUB PUSH1 0x20 DUP4 ADD MSTORE PUSH2 0x64E DUP2 DUP5 PUSH2 0x5F1 JUMP JUMPDEST SWAP1 POP SWAP4 SWAP3 POP POP POP JUMP INVALID LOG2 PUSH5 0x6970667358 0x22 SLT KECCAK256 0xAA PUSH14 0x51C9174202ABFE48BDE08D450018 SLT MOD 0xE9 0xD3 ADDRESS TLOAD 0xCC COINBASE DUP13 SWAP1 PUSH17 0x6C9F71A3E64736F6C634300081A003360 DUP1 PUSH1 0x40 MSTORE CALLVALUE DUP1 ISZERO PUSH1 0xE JUMPI PUSH0 DUP1 REVERT JUMPDEST POP PUSH2 0x5BD DUP1 PUSH2 0x1C PUSH0 CODECOPY PUSH0 RETURN INVALID PUSH1 0x80 PUSH1 0x40 MSTORE PUSH1 0x4 CALLDATASIZE LT PUSH2 0x37 JUMPI PUSH0 CALLDATALOAD PUSH1 0xE0 SHR DUP1 PUSH4 0x12065FE0 EQ PUSH2 0xB2 JUMPI DUP1 PUSH4 0x24CCAB8F EQ PUSH2 0xDC JUMPI DUP1 PUSH4 0x38CC4831 EQ PUSH2 0x10C JUMPI PUSH2 0x77 JUMP JUMPDEST CALLDATASIZE PUSH2 0x77 JUMPI PUSH32 0x59E04C3F0D44B7CAF6E8EF854B61D9A51CF1960D7A88FF6356CC5E946B4B5832 CALLER CALLVALUE PUSH1 0x40 MLOAD PUSH2 0x6D SWAP3 SWAP2 SWAP1 PUSH2 0x23A JUMP JUMPDEST PUSH1 0x40 MLOAD DUP1 SWAP2 SUB SWAP1 LOG1 STOP JUMPDEST PUSH32 0x59E04C3F0D44B7CAF6E8EF854B61D9A51CF1960D7A88FF6356CC5E946B4B5832 CALLER CALLVALUE PUSH1 0x40 MLOAD PUSH2 0xA8 SWAP3 SWAP2 SWAP1 PUSH2 0x2BE JUMP JUMPDEST PUSH1 0x40 MLOAD DUP1 SWAP2 SUB SWAP1 LOG1 STOP JUMPDEST CALLVALUE DUP1 ISZERO PUSH2 0xBD JUMPI PUSH0 DUP1 REVERT JUMPDEST POP PUSH2 0xC6 PUSH2 0x136 JUMP JUMPDEST PUSH1 0x40 MLOAD PUSH2 0xD3 SWAP2 SWAP1 PUSH2 0x2F8 JUMP JUMPDEST PUSH1 0x40 MLOAD DUP1 SWAP2 SUB SWAP1 RETURN JUMPDEST PUSH2 0xF6 PUSH1 0x4 DUP1 CALLDATASIZE SUB DUP2 ADD SWAP1 PUSH2 0xF1 SWAP2 SWAP1 PUSH2 0x488 JUMP JUMPDEST PUSH2 0x13D JUMP JUMPDEST PUSH1 0x40 MLOAD PUSH2 0x103 SWAP2 SWAP1 PUSH2 0x2F8 JUMP JUMPDEST PUSH1 0x40 MLOAD DUP1 SWAP2 SUB SWAP1 RETURN JUMPDEST CALLVALUE DUP1 ISZERO PUSH2 0x117 JUMPI PUSH0 DUP1 REVERT JUMPDEST POP PUSH2 0x120 PUSH2 0x182 JUMP JUMPDEST PUSH1 0x40 MLOAD PUSH2 0x12D SWAP2 SWAP1 PUSH2 0x4E2 JUMP JUMPDEST PUSH1 0x40 MLOAD DUP1 SWAP2 SUB SWAP1 RETURN JUMPDEST PUSH0 SELFBALANCE SWAP1 POP SWAP1 JUMP JUMPDEST PUSH0 PUSH32 0x59E04C3F0D44B7CAF6E8EF854B61D9A51CF1960D7A88FF6356CC5E946B4B5832 CALLER CALLVALUE DUP6 PUSH1 0x40 MLOAD PUSH2 0x171 SWAP4 SWAP3 SWAP2 SWAP1 PUSH2 0x54B JUMP JUMPDEST PUSH1 0x40 MLOAD DUP1 SWAP2 SUB SWAP1 LOG1 DUP2 SWAP1 POP SWAP3 SWAP2 POP POP JUMP JUMPDEST PUSH0 ADDRESS SWAP1 POP SWAP1 JUMP JUMPDEST PUSH0 PUSH20 0xFFFFFFFFFFFFFFFFFFFFFFFFFFFFFFFFFFFFFFFF DUP3 AND SWAP1 POP SWAP2 SWAP1 POP JUMP JUMPDEST PUSH0 PUSH2 0x1B2 DUP3 PUSH2 0x189 JUMP JUMPDEST SWAP1 POP SWAP2 SWAP1 POP JUMP JUMPDEST PUSH2 0x1C2 DUP2 PUSH2 0x1A8 JUMP JUMPDEST DUP3 MSTORE POP POP JUMP JUMPDEST PUSH0 DUP2 SWAP1 POP SWAP2 SWAP1 POP JUMP JUMPDEST PUSH2 0x1DA DUP2 PUSH2 0x1C8 JUMP JUMPDEST DUP3 MSTORE POP POP JUMP JUMPDEST PUSH0 DUP3 DUP3 MSTORE PUSH1 0x20 DUP3 ADD SWAP1 POP SWAP3 SWAP2 POP POP JUMP JUMPDEST PUSH32 0x72656365697665207761732063616C6C65640000000000000000000000000000 PUSH0 DUP3 ADD MSTORE POP JUMP JUMPDEST PUSH0 PUSH2 0x224 PUSH1 0x12 DUP4 PUSH2 0x1E0 JUMP JUMPDEST SWAP2 POP PUSH2 0x22F DUP3 PUSH2 0x1F0 JUMP JUMPDEST PUSH1 0x20 DUP3 ADD SWAP1 POP SWAP2 SWAP1 POP JUMP JUMPDEST PUSH0 PUSH1 0x60 DUP3 ADD SWAP1 POP PUSH2 0x24D PUSH0 DUP4 ADD DUP6 PUSH2 0x1B9 JUMP JUMPDEST PUSH2 0x25A PUSH1 0x20 DUP4 ADD DUP5 PUSH2 0x1D1 JUMP JUMPDEST DUP2 DUP2 SUB PUSH1 0x40 DUP4 ADD MSTORE PUSH2 0x26B DUP2 PUSH2 0x218 JUMP JUMPDEST SWAP1 POP SWAP4 SWAP3 POP POP POP JUMP JUMPDEST PUSH32 0x66616C6C6261636B207761732063616C6C656431323331320000000000000000 PUSH0 DUP3 ADD MSTORE POP JUMP JUMPDEST PUSH0 PUSH2 0x2A8 PUSH1 0x18 DUP4 PUSH2 0x1E0 JUMP JUMPDEST SWAP2 POP PUSH2 0x2B3 DUP3 PUSH2 0x274 JUMP JUMPDEST PUSH1 0x20 DUP3 ADD SWAP1 POP SWAP2 SWAP1 POP JUMP JUMPDEST PUSH0 PUSH1 0x60 DUP3 ADD SWAP1 POP PUSH2 0x2D1 PUSH0 DUP4 ADD DUP6 PUSH2 0x1B9 JUMP JUMPDEST PUSH2 0x2DE PUSH1 0x20 DUP4 ADD DUP5 PUSH2 0x1D1 JUMP JUMPDEST DUP2 DUP2 SUB PUSH1 0x40 DUP4 ADD MSTORE PUSH2 0x2EF DUP2 PUSH2 0x29C JUMP JUMPDEST SWAP1 POP SWAP4 SWAP3 POP POP POP JUMP JUMPDEST PUSH0 PUSH1 0x20 DUP3 ADD SWAP1 POP PUSH2 0x30B PUSH0 DUP4 ADD DUP5 PUSH2 0x1D1 JUMP JUMPDEST SWAP3 SWAP2 POP POP JUMP JUMPDEST PUSH0 PUSH1 0x40 MLOAD SWAP1 POP SWAP1 JUMP JUMPDEST PUSH0 DUP1 REVERT JUMPDEST PUSH0 DUP1 REVERT JUMPDEST PUSH0 DUP1 REVERT JUMPDEST PUSH0 DUP1 REVERT JUMPDEST PUSH0 PUSH1 0x1F NOT PUSH1 0x1F DUP4 ADD AND SWAP1 POP SWAP2 SWAP1 POP JUMP JUMPDEST PUSH32 0x4E487B7100000000000000000000000000000000000000000000000000000000 PUSH0 MSTORE PUSH1 0x41 PUSH1 0x4 MSTORE PUSH1 0x24 PUSH0 REVERT JUMPDEST PUSH2 0x370 DUP3 PUSH2 0x32A JUMP JUMPDEST DUP2 ADD DUP2 DUP2 LT PUSH8 0xFFFFFFFFFFFFFFFF DUP3 GT OR ISZERO PUSH2 0x38F JUMPI PUSH2 0x38E PUSH2 0x33A JUMP JUMPDEST JUMPDEST DUP1 PUSH1 0x40 MSTORE POP POP POP JUMP JUMPDEST PUSH0 PUSH2 0x3A1 PUSH2 0x311 JUMP JUMPDEST SWAP1 POP PUSH2 0x3AD DUP3 DUP3 PUSH2 0x367 JUMP JUMPDEST SWAP2 SWAP1 POP JUMP JUMPDEST PUSH0 PUSH8 0xFFFFFFFFFFFFFFFF DUP3 GT ISZERO PUSH2 0x3CC JUMPI PUSH2 0x3CB PUSH2 0x33A JUMP JUMPDEST JUMPDEST PUSH2 0x3D5 DUP3 PUSH2 0x32A JUMP JUMPDEST SWAP1 POP PUSH1 0x20 DUP2 ADD SWAP1 POP SWAP2 SWAP1 POP JUMP JUMPDEST DUP3 DUP2 DUP4 CALLDATACOPY PUSH0 DUP4 DUP4 ADD MSTORE POP POP POP JUMP JUMPDEST PUSH0 PUSH2 0x402 PUSH2 0x3FD DUP5 PUSH2 0x3B2 JUMP JUMPDEST PUSH2 0x398 JUMP JUMPDEST SWAP1 POP DUP3 DUP2 MSTORE PUSH1 0x20 DUP2 ADD DUP5 DUP5 DUP5 ADD GT ISZERO PUSH2 0x41E JUMPI PUSH2 0x41D PUSH2 0x326 JUMP JUMPDEST JUMPDEST PUSH2 0x429 DUP5 DUP3 DUP6 PUSH2 0x3E2 JUMP JUMPDEST POP SWAP4 SWAP3 POP POP POP JUMP JUMPDEST PUSH0 DUP3 PUSH1 0x1F DUP4 ADD SLT PUSH2 0x445 JUMPI PUSH2 0x444 PUSH2 0x322 JUMP JUMPDEST JUMPDEST DUP2 CALLDATALOAD PUSH2 0x455 DUP5 DUP3 PUSH1 0x20 DUP7 ADD PUSH2 0x3F0 JUMP JUMPDEST SWAP2 POP POP SWAP3 SWAP2 POP POP JUMP JUMPDEST PUSH2 0x467 DUP2 PUSH2 0x1C8 JUMP JUMPDEST DUP2 EQ PUSH2 0x471 JUMPI PUSH0 DUP1 REVERT JUMPDEST POP JUMP JUMPDEST PUSH0 DUP2 CALLDATALOAD SWAP1 POP PUSH2 0x482 DUP2 PUSH2 0x45E JUMP JUMPDEST SWAP3 SWAP2 POP POP JUMP JUMPDEST PUSH0 DUP1 PUSH1 0x40 DUP4 DUP6 SUB SLT ISZERO PUSH2 0x49E JUMPI PUSH2 0x49D PUSH2 0x31A JUMP JUMPDEST JUMPDEST PUSH0 DUP4 ADD CALLDATALOAD PUSH8 0xFFFFFFFFFFFFFFFF DUP2 GT ISZERO PUSH2 0x4BB JUMPI PUSH2 0x4BA PUSH2 0x31E JUMP JUMPDEST JUMPDEST PUSH2 0x4C7 DUP6 DUP3 DUP7 ADD PUSH2 0x431 JUMP JUMPDEST SWAP3 POP POP PUSH1 0x20 PUSH2 0x4D8 DUP6 DUP3 DUP7 ADD PUSH2 0x474 JUMP JUMPDEST SWAP2 POP POP SWAP3 POP SWAP3 SWAP1 POP JUMP JUMPDEST PUSH0 PUSH1 0x20 DUP3 ADD SWAP1 POP PUSH2 0x4F5 PUSH0 DUP4 ADD DUP5 PUSH2 0x1B9 JUMP JUMPDEST SWAP3 SWAP2 POP POP JUMP JUMPDEST PUSH0 DUP2 MLOAD SWAP1 POP SWAP2 SWAP1 POP JUMP JUMPDEST DUP3 DUP2 DUP4 MCOPY PUSH0 DUP4 DUP4 ADD MSTORE POP POP POP JUMP JUMPDEST PUSH0 PUSH2 0x51D DUP3 PUSH2 0x4FB JUMP JUMPDEST PUSH2 0x527 DUP2 DUP6 PUSH2 0x1E0 JUMP JUMPDEST SWAP4 POP PUSH2 0x537 DUP2 DUP6 PUSH1 0x20 DUP7 ADD PUSH2 0x505 JUMP JUMPDEST PUSH2 0x540 DUP2 PUSH2 0x32A JUMP JUMPDEST DUP5 ADD SWAP2 POP POP SWAP3 SWAP2 POP POP JUMP JUMPDEST PUSH0 PUSH1 0x60 DUP3 ADD SWAP1 POP PUSH2 0x55E PUSH0 DUP4 ADD DUP7 PUSH2 0x1B9 JUMP JUMPDEST PUSH2 0x56B PUSH1 0x20 DUP4 ADD DUP6 PUSH2 0x1D1 JUMP JUMPDEST DUP2 DUP2 SUB PUSH1 0x40 DUP4 ADD MSTORE PUSH2 0x57D DUP2 DUP5 PUSH2 0x513 JUMP JUMPDEST SWAP1 POP SWAP5 SWAP4 POP POP POP POP JUMP INVALID LOG2 PUSH5 0x6970667358 0x22 SLT KECCAK256 0xEF DUP12 MULMOD 0xF6 0xAD DUP11 0xA5 GT CALLVALUE PREVRANDAO PUSH7 0x513AED44DB0C82 0xE5 JUMPI 0xC4 0xB3 SWAP6 MULMOD PUSH26 0xC51F1AC374756464736F6C634300081A00330000000000000000 "
				},
				"gasEstimates": {
					"creation": {
						"codeDepositCost": "335400",
						"executionCost": "infinite",
						"totalCost": "infinite"
					},
					"external": {
						"getAddress()": "infinite",
						"getBalance()": "infinite",
						"testCall(address,uint256)": "infinite"
					}
				},
				"methodIdentifiers": {
					"getAddress()": "38cc4831",
					"getBalance()": "12065fe0",
					"testCall(address,uint256)": "59c75ada"
				}
			},
			"storageLayout": {
				"storage": [
					{
						"astId": 80,
						"contract": "contracts/Receiver.sol:Caller",
						"label": "receiver",
						"offset": 0,
						"slot": "0",
						"type": "t_contract(Receiver)77"
					}
				],
				"types": {
					"t_contract(Receiver)77": {
						"encoding": "inplace",
						"label": "contract Receiver",
						"numberOfBytes": "20"
					}
				}
			},
			"userdoc": {
				"kind": "user",
				"methods": {},
				"version": 1
			}
		}
	}
}